{
  "contractName": "RefundEscrow",
  "abi": [
    {
      "inputs": [
        {
          "internalType": "address payable",
          "name": "beneficiary_",
          "type": "address"
        }
      ],
      "stateMutability": "nonpayable",
      "type": "constructor"
    },
    {
      "anonymous": false,
      "inputs": [
        {
          "indexed": true,
          "internalType": "address",
          "name": "payee",
          "type": "address"
        },
        {
          "indexed": false,
          "internalType": "uint256",
          "name": "weiAmount",
          "type": "uint256"
        }
      ],
      "name": "Deposited",
      "type": "event"
    },
    {
      "anonymous": false,
      "inputs": [
        {
          "indexed": true,
          "internalType": "address",
          "name": "previousOwner",
          "type": "address"
        },
        {
          "indexed": true,
          "internalType": "address",
          "name": "newOwner",
          "type": "address"
        }
      ],
      "name": "OwnershipTransferred",
      "type": "event"
    },
    {
      "anonymous": false,
      "inputs": [],
      "name": "RefundsClosed",
      "type": "event"
    },
    {
      "anonymous": false,
      "inputs": [],
      "name": "RefundsEnabled",
      "type": "event"
    },
    {
      "anonymous": false,
      "inputs": [
        {
          "indexed": true,
          "internalType": "address",
          "name": "payee",
          "type": "address"
        },
        {
          "indexed": false,
          "internalType": "uint256",
          "name": "weiAmount",
          "type": "uint256"
        }
      ],
      "name": "Withdrawn",
      "type": "event"
    },
    {
      "inputs": [
        {
          "internalType": "address",
          "name": "payee",
          "type": "address"
        }
      ],
      "name": "depositsOf",
      "outputs": [
        {
          "internalType": "uint256",
          "name": "",
          "type": "uint256"
        }
      ],
      "stateMutability": "view",
      "type": "function"
    },
    {
      "inputs": [],
      "name": "owner",
      "outputs": [
        {
          "internalType": "address",
          "name": "",
          "type": "address"
        }
      ],
      "stateMutability": "view",
      "type": "function"
    },
    {
      "inputs": [],
      "name": "renounceOwnership",
      "outputs": [],
      "stateMutability": "nonpayable",
      "type": "function"
    },
    {
      "inputs": [
        {
          "internalType": "address",
          "name": "newOwner",
          "type": "address"
        }
      ],
      "name": "transferOwnership",
      "outputs": [],
      "stateMutability": "nonpayable",
      "type": "function"
    },
    {
      "inputs": [
        {
          "internalType": "address payable",
          "name": "payee",
          "type": "address"
        }
      ],
      "name": "withdraw",
      "outputs": [],
      "stateMutability": "nonpayable",
      "type": "function"
    },
    {
      "inputs": [],
      "name": "state",
      "outputs": [
        {
          "internalType": "enum RefundEscrow.State",
          "name": "",
          "type": "uint8"
        }
      ],
      "stateMutability": "view",
      "type": "function"
    },
    {
      "inputs": [],
      "name": "beneficiary",
      "outputs": [
        {
          "internalType": "address payable",
          "name": "",
          "type": "address"
        }
      ],
      "stateMutability": "view",
      "type": "function"
    },
    {
      "inputs": [
        {
          "internalType": "address",
          "name": "refundee",
          "type": "address"
        }
      ],
      "name": "deposit",
      "outputs": [],
      "stateMutability": "payable",
      "type": "function"
    },
    {
      "inputs": [],
      "name": "close",
      "outputs": [],
      "stateMutability": "nonpayable",
      "type": "function"
    },
    {
      "inputs": [],
      "name": "enableRefunds",
      "outputs": [],
      "stateMutability": "nonpayable",
      "type": "function"
    },
    {
      "inputs": [],
      "name": "beneficiaryWithdraw",
      "outputs": [],
      "stateMutability": "nonpayable",
      "type": "function"
    },
    {
      "inputs": [
        {
          "internalType": "address",
          "name": "",
          "type": "address"
        }
      ],
      "name": "withdrawalAllowed",
      "outputs": [
        {
          "internalType": "bool",
          "name": "",
          "type": "bool"
        }
      ],
      "stateMutability": "view",
      "type": "function"
    }
  ],
  "bytecode": "0x60a06040523480156200001157600080fd5b5060405162001b4538038062001b45833981810160405281019062000037919062000209565b600062000049620001ea60201b60201c565b9050806000806101000a81548173ffffffffffffffffffffffffffffffffffffffff021916908373ffffffffffffffffffffffffffffffffffffffff1602179055508073ffffffffffffffffffffffffffffffffffffffff16600073ffffffffffffffffffffffffffffffffffffffff167f8be0079c531659141344cd1fd0a4f28419497f9722a3daafe3b4186f6b6457e060405160405180910390a350600073ffffffffffffffffffffffffffffffffffffffff168173ffffffffffffffffffffffffffffffffffffffff1614156200015a576040517f08c379a000000000000000000000000000000000000000000000000000000000815260040162000151906200025c565b60405180910390fd5b8073ffffffffffffffffffffffffffffffffffffffff1660808173ffffffffffffffffffffffffffffffffffffffff1660601b815250506000600260006101000a81548160ff02191690836002811115620001de577f4e487b7100000000000000000000000000000000000000000000000000000000600052602160045260246000fd5b0217905550506200032c565b600033905090565b600081519050620002038162000312565b92915050565b6000602082840312156200021c57600080fd5b60006200022c84828501620001f2565b91505092915050565b600062000244602d836200027e565b91506200025182620002c3565b604082019050919050565b60006020820190508181036000830152620002778162000235565b9050919050565b600082825260208201905092915050565b60006200029c82620002a3565b9050919050565b600073ffffffffffffffffffffffffffffffffffffffff82169050919050565b7f526566756e64457363726f773a2062656e65666963696172792069732074686560008201527f207a65726f206164647265737300000000000000000000000000000000000000602082015250565b6200031d816200028f565b81146200032957600080fd5b50565b60805160601c6117fa6200034b600039600061027501526117fa6000f3fe6080604052600436106100a75760003560e01c80638da5cb5b116100645780638da5cb5b146101825780639af6549a146101ad578063c19d93fb146101c4578063e3a9db1a146101ef578063f2fde38b1461022c578063f340fa0114610255576100a7565b806338af3eed146100ac57806343d726d6146100d757806351cff8d9146100ee578063685ca19414610117578063715018a6146101545780638c52dc411461016b575b600080fd5b3480156100b857600080fd5b506100c1610271565b6040516100ce9190611229565b60405180910390f35b3480156100e357600080fd5b506100ec610299565b005b3480156100fa57600080fd5b5061011560048036038101906101109190611027565b61044d565b005b34801561012357600080fd5b5061013e60048036038101906101399190610ffe565b6104a1565b60405161014b9190611244565b60405180910390f35b34801561016057600080fd5b50610169610525565b005b34801561017757600080fd5b5061018061065f565b005b34801561018e57600080fd5b50610197610814565b6040516101a4919061120e565b60405180910390f35b3480156101b957600080fd5b506101c261083d565b005b3480156101d057600080fd5b506101d9610928565b6040516101e6919061125f565b60405180910390f35b3480156101fb57600080fd5b5061021660048036038101906102119190610ffe565b61093f565b604051610223919061139a565b60405180910390f35b34801561023857600080fd5b50610253600480360381019061024e9190610ffe565b610988565b005b61026f600480360381019061026a9190610ffe565b610b31565b005b60007f0000000000000000000000000000000000000000000000000000000000000000905090565b6102a1610bf7565b73ffffffffffffffffffffffffffffffffffffffff166102bf610814565b73ffffffffffffffffffffffffffffffffffffffff1614610315576040517f08c379a000000000000000000000000000000000000000000000000000000000815260040161030c9061135a565b60405180910390fd5b6000600281111561034f577f4e487b7100000000000000000000000000000000000000000000000000000000600052602160045260246000fd5b610357610928565b600281111561038f577f4e487b7100000000000000000000000000000000000000000000000000000000600052602160045260246000fd5b146103cf576040517f08c379a00000000000000000000000000000000000000000000000000000000081526004016103c69061133a565b60405180910390fd5b60028060006101000a81548160ff0219169083600281111561041a577f4e487b7100000000000000000000000000000000000000000000000000000000600052602160045260246000fd5b02179055507f088672c3a6e342f7cd94a65ba63b79df24a8973927b4d05d803c44bbf787d12f60405160405180910390a1565b610456816104a1565b610495576040517f08c379a000000000000000000000000000000000000000000000000000000000815260040161048c9061131a565b60405180910390fd5b61049e81610bff565b50565b6000600160028111156104dd577f4e487b7100000000000000000000000000000000000000000000000000000000600052602160045260246000fd5b6104e5610928565b600281111561051d577f4e487b7100000000000000000000000000000000000000000000000000000000600052602160045260246000fd5b149050919050565b61052d610bf7565b73ffffffffffffffffffffffffffffffffffffffff1661054b610814565b73ffffffffffffffffffffffffffffffffffffffff16146105a1576040517f08c379a00000000000000000000000000000000000000000000000000000000081526004016105989061135a565b60405180910390fd5b600073ffffffffffffffffffffffffffffffffffffffff1660008054906101000a900473ffffffffffffffffffffffffffffffffffffffff1673ffffffffffffffffffffffffffffffffffffffff167f8be0079c531659141344cd1fd0a4f28419497f9722a3daafe3b4186f6b6457e060405160405180910390a360008060006101000a81548173ffffffffffffffffffffffffffffffffffffffff021916908373ffffffffffffffffffffffffffffffffffffffff160217905550565b610667610bf7565b73ffffffffffffffffffffffffffffffffffffffff16610685610814565b73ffffffffffffffffffffffffffffffffffffffff16146106db576040517f08c379a00000000000000000000000000000000000000000000000000000000081526004016106d29061135a565b60405180910390fd5b60006002811115610715577f4e487b7100000000000000000000000000000000000000000000000000000000600052602160045260246000fd5b61071d610928565b6002811115610755577f4e487b7100000000000000000000000000000000000000000000000000000000600052602160045260246000fd5b14610795576040517f08c379a000000000000000000000000000000000000000000000000000000000815260040161078c9061137a565b60405180910390fd5b6001600260006101000a81548160ff021916908360028111156107e1577f4e487b7100000000000000000000000000000000000000000000000000000000600052602160045260246000fd5b02179055507f599d8e5a83cffb867d051598c4d70e805d59802d8081c1c7d6dffc5b6aca2b8960405160405180910390a1565b60008060009054906101000a900473ffffffffffffffffffffffffffffffffffffffff16905090565b600280811115610876577f4e487b7100000000000000000000000000000000000000000000000000000000600052602160045260246000fd5b61087e610928565b60028111156108b6577f4e487b7100000000000000000000000000000000000000000000000000000000600052602160045260246000fd5b146108f6576040517f08c379a00000000000000000000000000000000000000000000000000000000081526004016108ed9061127a565b60405180910390fd5b61092647610902610271565b73ffffffffffffffffffffffffffffffffffffffff16610d7f90919063ffffffff16565b565b6000600260009054906101000a900460ff16905090565b6000600160008373ffffffffffffffffffffffffffffffffffffffff1673ffffffffffffffffffffffffffffffffffffffff168152602001908152602001600020549050919050565b610990610bf7565b73ffffffffffffffffffffffffffffffffffffffff166109ae610814565b73ffffffffffffffffffffffffffffffffffffffff1614610a04576040517f08c379a00000000000000000000000000000000000000000000000000000000081526004016109fb9061135a565b60405180910390fd5b600073ffffffffffffffffffffffffffffffffffffffff168173ffffffffffffffffffffffffffffffffffffffff161415610a74576040517f08c379a0000000000000000000000000000000000000000000000000000000008152600401610a6b9061129a565b60405180910390fd5b8073ffffffffffffffffffffffffffffffffffffffff1660008054906101000a900473ffffffffffffffffffffffffffffffffffffffff1673ffffffffffffffffffffffffffffffffffffffff167f8be0079c531659141344cd1fd0a4f28419497f9722a3daafe3b4186f6b6457e060405160405180910390a3806000806101000a81548173ffffffffffffffffffffffffffffffffffffffff021916908373ffffffffffffffffffffffffffffffffffffffff16021790555050565b60006002811115610b6b577f4e487b7100000000000000000000000000000000000000000000000000000000600052602160045260246000fd5b610b73610928565b6002811115610bab577f4e487b7100000000000000000000000000000000000000000000000000000000600052602160045260246000fd5b14610beb576040517f08c379a0000000000000000000000000000000000000000000000000000000008152600401610be2906112fa565b60405180910390fd5b610bf481610e73565b50565b600033905090565b610c07610bf7565b73ffffffffffffffffffffffffffffffffffffffff16610c25610814565b73ffffffffffffffffffffffffffffffffffffffff1614610c7b576040517f08c379a0000000000000000000000000000000000000000000000000000000008152600401610c729061135a565b60405180910390fd5b6000600160008373ffffffffffffffffffffffffffffffffffffffff1673ffffffffffffffffffffffffffffffffffffffff1681526020019081526020016000205490506000600160008473ffffffffffffffffffffffffffffffffffffffff1673ffffffffffffffffffffffffffffffffffffffff16815260200190815260200160002081905550610d2d818373ffffffffffffffffffffffffffffffffffffffff16610d7f90919063ffffffff16565b8173ffffffffffffffffffffffffffffffffffffffff167f7084f5476618d8e60b11ef0d7d3f06914655adb8793e28ff7f018d4c76d505d582604051610d73919061139a565b60405180910390a25050565b80471015610dc2576040517f08c379a0000000000000000000000000000000000000000000000000000000008152600401610db9906112da565b60405180910390fd5b60008273ffffffffffffffffffffffffffffffffffffffff1682604051610de8906111f9565b60006040518083038185875af1925050503d8060008114610e25576040519150601f19603f3d011682016040523d82523d6000602084013e610e2a565b606091505b5050905080610e6e576040517f08c379a0000000000000000000000000000000000000000000000000000000008152600401610e65906112ba565b60405180910390fd5b505050565b610e7b610bf7565b73ffffffffffffffffffffffffffffffffffffffff16610e99610814565b73ffffffffffffffffffffffffffffffffffffffff1614610eef576040517f08c379a0000000000000000000000000000000000000000000000000000000008152600401610ee69061135a565b60405180910390fd5b600034905080600160008473ffffffffffffffffffffffffffffffffffffffff1673ffffffffffffffffffffffffffffffffffffffff16815260200190815260200160002054610f3f91906113d1565b600160008473ffffffffffffffffffffffffffffffffffffffff1673ffffffffffffffffffffffffffffffffffffffff168152602001908152602001600020819055508173ffffffffffffffffffffffffffffffffffffffff167f2da466a7b24304f47e87fa2e1e5a81b9831ce54fec19055ce277ca2f39ba42c482604051610fc8919061139a565b60405180910390a25050565b600081359050610fe381611796565b92915050565b600081359050610ff8816117ad565b92915050565b60006020828403121561101057600080fd5b600061101e84828501610fd4565b91505092915050565b60006020828403121561103957600080fd5b600061104784828501610fe9565b91505092915050565b61105981611439565b82525050565b61106881611427565b82525050565b6110778161144b565b82525050565b61108681611494565b82525050565b60006110996038836113c0565b91506110a482611504565b604082019050919050565b60006110bc6026836113c0565b91506110c782611553565b604082019050919050565b60006110df603a836113c0565b91506110ea826115a2565b604082019050919050565b6000611102601d836113c0565b915061110d826115f1565b602082019050919050565b6000611125602b836113c0565b91506111308261161a565b604082019050919050565b60006111486033836113c0565b915061115382611669565b604082019050919050565b600061116b6029836113c0565b9150611176826116b8565b604082019050919050565b600061118e6020836113c0565b915061119982611707565b602082019050919050565b60006111b16000836113b5565b91506111bc82611730565b600082019050919050565b60006111d46032836113c0565b91506111df82611733565b604082019050919050565b6111f38161148a565b82525050565b6000611204826111a4565b9150819050919050565b6000602082019050611223600083018461105f565b92915050565b600060208201905061123e6000830184611050565b92915050565b6000602082019050611259600083018461106e565b92915050565b6000602082019050611274600083018461107d565b92915050565b600060208201905081810360008301526112938161108c565b9050919050565b600060208201905081810360008301526112b3816110af565b9050919050565b600060208201905081810360008301526112d3816110d2565b9050919050565b600060208201905081810360008301526112f3816110f5565b9050919050565b6000602082019050818103600083015261131381611118565b9050919050565b600060208201905081810360008301526113338161113b565b9050919050565b600060208201905081810360008301526113538161115e565b9050919050565b6000602082019050818103600083015261137381611181565b9050919050565b60006020820190508181036000830152611393816111c7565b9050919050565b60006020820190506113af60008301846111ea565b92915050565b600081905092915050565b600082825260208201905092915050565b60006113dc8261148a565b91506113e78361148a565b9250827fffffffffffffffffffffffffffffffffffffffffffffffffffffffffffffffff0382111561141c5761141b6114a6565b5b828201905092915050565b60006114328261146a565b9050919050565b60006114448261146a565b9050919050565b60008115159050919050565b600081905061146582611782565b919050565b600073ffffffffffffffffffffffffffffffffffffffff82169050919050565b6000819050919050565b600061149f82611457565b9050919050565b7f4e487b7100000000000000000000000000000000000000000000000000000000600052601160045260246000fd5b7f4e487b7100000000000000000000000000000000000000000000000000000000600052602160045260246000fd5b7f526566756e64457363726f773a2062656e65666963696172792063616e206f6e60008201527f6c79207769746864726177207768696c6520636c6f7365640000000000000000602082015250565b7f4f776e61626c653a206e6577206f776e657220697320746865207a65726f206160008201527f6464726573730000000000000000000000000000000000000000000000000000602082015250565b7f416464726573733a20756e61626c6520746f2073656e642076616c75652c207260008201527f6563697069656e74206d61792068617665207265766572746564000000000000602082015250565b7f416464726573733a20696e73756666696369656e742062616c616e6365000000600082015250565b7f526566756e64457363726f773a2063616e206f6e6c79206465706f736974207760008201527f68696c6520616374697665000000000000000000000000000000000000000000602082015250565b7f436f6e646974696f6e616c457363726f773a207061796565206973206e6f742060008201527f616c6c6f77656420746f20776974686472617700000000000000000000000000602082015250565b7f526566756e64457363726f773a2063616e206f6e6c7920636c6f73652077686960008201527f6c65206163746976650000000000000000000000000000000000000000000000602082015250565b7f4f776e61626c653a2063616c6c6572206973206e6f7420746865206f776e6572600082015250565b50565b7f526566756e64457363726f773a2063616e206f6e6c7920656e61626c6520726560008201527f66756e6473207768696c65206163746976650000000000000000000000000000602082015250565b60038110611793576117926114d5565b5b50565b61179f81611427565b81146117aa57600080fd5b50565b6117b681611439565b81146117c157600080fd5b5056fea2646970667358221220aed36512ea6f9d313e53311b55b1012b75e684398bcc0b860f227d6cad57063264736f6c63430008030033",
  "immutableReferences": {
    "4503": [
      {
        "length": 32,
        "start": 629
      }
    ]
  },
  "source": "// SPDX-License-Identifier: MIT\n\npragma solidity ^0.8.0;\n\nimport \"./ConditionalEscrow.sol\";\n\n/**\n * @title RefundEscrow\n * @dev Escrow that holds funds for a beneficiary, deposited from multiple\n * parties.\n * @dev Intended usage: See {Escrow}. Same usage guidelines apply here.\n * @dev The owner account (that is, the contract that instantiates this\n * contract) may deposit, close the deposit period, and allow for either\n * withdrawal by the beneficiary, or refunds to the depositors. All interactions\n * with `RefundEscrow` will be made through the owner contract.\n */\ncontract RefundEscrow is ConditionalEscrow {\n    using Address for address payable;\n\n    enum State { Active, Refunding, Closed }\n\n    event RefundsClosed();\n    event RefundsEnabled();\n\n    State private _state;\n    address payable immutable private _beneficiary;\n\n    /**\n     * @dev Constructor.\n     * @param beneficiary_ The beneficiary of the deposits.\n     */\n    constructor (address payable beneficiary_) {\n        require(beneficiary_ != address(0), \"RefundEscrow: beneficiary is the zero address\");\n        _beneficiary = beneficiary_;\n        _state = State.Active;\n    }\n\n    /**\n     * @return The current state of the escrow.\n     */\n    function state() public view virtual returns (State) {\n        return _state;\n    }\n\n    /**\n     * @return The beneficiary of the escrow.\n     */\n    function beneficiary() public view virtual returns (address payable) {\n        return _beneficiary;\n    }\n\n    /**\n     * @dev Stores funds that may later be refunded.\n     * @param refundee The address funds will be sent to if a refund occurs.\n     */\n    function deposit(address refundee) public payable virtual override {\n        require(state() == State.Active, \"RefundEscrow: can only deposit while active\");\n        super.deposit(refundee);\n    }\n\n    /**\n     * @dev Allows for the beneficiary to withdraw their funds, rejecting\n     * further deposits.\n     */\n    function close() public virtual onlyOwner {\n        require(state() == State.Active, \"RefundEscrow: can only close while active\");\n        _state = State.Closed;\n        emit RefundsClosed();\n    }\n\n    /**\n     * @dev Allows for refunds to take place, rejecting further deposits.\n     */\n    function enableRefunds() public onlyOwner virtual {\n        require(state() == State.Active, \"RefundEscrow: can only enable refunds while active\");\n        _state = State.Refunding;\n        emit RefundsEnabled();\n    }\n\n    /**\n     * @dev Withdraws the beneficiary's funds.\n     */\n    function beneficiaryWithdraw() public virtual {\n        require(state() == State.Closed, \"RefundEscrow: beneficiary can only withdraw while closed\");\n        beneficiary().sendValue(address(this).balance);\n    }\n\n    /**\n     * @dev Returns whether refundees can withdraw their deposits (be refunded). The overridden function receives a\n     * 'payee' argument, but we ignore it here since the condition is global, not per-payee.\n     */\n    function withdrawalAllowed(address) public view override returns (bool) {\n        return state() == State.Refunding;\n    }\n}\n",
  "sourcePath": "/Users/wc/Program/blockchain/nft-boilerplate/contracts/utils/escrow/RefundEscrow.sol",
  "compiler": {
    "name": "solc",
    "version": "0.8.3+commit.8d00100c.Emscripten.clang"
  },
  "schemaVersion": "3.4.0",
  "updatedAt": "2021-06-24T06:52:03.986Z",
  "devdoc": {
    "details": "Escrow that holds funds for a beneficiary, deposited from multiple parties.Intended usage: See {Escrow}. Same usage guidelines apply here.The owner account (that is, the contract that instantiates this contract) may deposit, close the deposit period, and allow for either withdrawal by the beneficiary, or refunds to the depositors. All interactions with `RefundEscrow` will be made through the owner contract.",
    "kind": "dev",
    "methods": {
      "beneficiary()": {
        "returns": {
          "_0": "The beneficiary of the escrow."
        }
      },
      "beneficiaryWithdraw()": {
        "details": "Withdraws the beneficiary's funds."
      },
      "close()": {
        "details": "Allows for the beneficiary to withdraw their funds, rejecting further deposits."
      },
      "constructor": {
        "details": "Constructor.",
        "params": {
          "beneficiary_": "The beneficiary of the deposits."
        }
      },
      "deposit(address)": {
        "details": "Stores funds that may later be refunded.",
        "params": {
          "refundee": "The address funds will be sent to if a refund occurs."
        }
      },
      "enableRefunds()": {
        "details": "Allows for refunds to take place, rejecting further deposits."
      },
      "owner()": {
        "details": "Returns the address of the current owner."
      },
      "renounceOwnership()": {
        "details": "Leaves the contract without owner. It will not be possible to call `onlyOwner` functions anymore. Can only be called by the current owner. NOTE: Renouncing ownership will leave the contract without an owner, thereby removing any functionality that is only available to the owner."
      },
      "state()": {
        "returns": {
          "_0": "The current state of the escrow."
        }
      },
      "transferOwnership(address)": {
        "details": "Transfers ownership of the contract to a new account (`newOwner`). Can only be called by the current owner."
      },
      "withdraw(address)": {
        "details": "Withdraw accumulated balance for a payee, forwarding all gas to the recipient. WARNING: Forwarding all gas opens the door to reentrancy vulnerabilities. Make sure you trust the recipient, or are either following the checks-effects-interactions pattern or using {ReentrancyGuard}.",
        "params": {
          "payee": "The address whose funds will be withdrawn and transferred to."
        }
      },
      "withdrawalAllowed(address)": {
        "details": "Returns whether refundees can withdraw their deposits (be refunded). The overridden function receives a 'payee' argument, but we ignore it here since the condition is global, not per-payee."
      }
    },
    "title": "RefundEscrow",
    "version": 1
  },
  "userdoc": {
    "kind": "user",
    "methods": {},
    "version": 1
  }
}