{
  "contractName": "Shibas",
  "abi": [
    {
      "inputs": [],
      "stateMutability": "nonpayable",
      "type": "constructor"
    },
    {
      "anonymous": false,
      "inputs": [
        {
          "indexed": true,
          "internalType": "address",
          "name": "owner",
          "type": "address"
        },
        {
          "indexed": true,
          "internalType": "address",
          "name": "approved",
          "type": "address"
        },
        {
          "indexed": true,
          "internalType": "uint256",
          "name": "tokenId",
          "type": "uint256"
        }
      ],
      "name": "Approval",
      "type": "event"
    },
    {
      "anonymous": false,
      "inputs": [
        {
          "indexed": true,
          "internalType": "address",
          "name": "owner",
          "type": "address"
        },
        {
          "indexed": true,
          "internalType": "address",
          "name": "operator",
          "type": "address"
        },
        {
          "indexed": false,
          "internalType": "bool",
          "name": "approved",
          "type": "bool"
        }
      ],
      "name": "ApprovalForAll",
      "type": "event"
    },
    {
      "anonymous": false,
      "inputs": [
        {
          "indexed": true,
          "internalType": "address",
          "name": "previousOwner",
          "type": "address"
        },
        {
          "indexed": true,
          "internalType": "address",
          "name": "newOwner",
          "type": "address"
        }
      ],
      "name": "OwnershipTransferred",
      "type": "event"
    },
    {
      "anonymous": false,
      "inputs": [
        {
          "indexed": true,
          "internalType": "address",
          "name": "from",
          "type": "address"
        },
        {
          "indexed": true,
          "internalType": "address",
          "name": "to",
          "type": "address"
        },
        {
          "indexed": true,
          "internalType": "uint256",
          "name": "tokenId",
          "type": "uint256"
        }
      ],
      "name": "Transfer",
      "type": "event"
    },
    {
      "inputs": [],
      "name": "MAX_SHIBA_SUPPLY",
      "outputs": [
        {
          "internalType": "uint256",
          "name": "",
          "type": "uint256"
        }
      ],
      "stateMutability": "view",
      "type": "function",
      "constant": true
    },
    {
      "inputs": [],
      "name": "METADATA_PROVENANCE_HASH",
      "outputs": [
        {
          "internalType": "string",
          "name": "",
          "type": "string"
        }
      ],
      "stateMutability": "view",
      "type": "function",
      "constant": true
    },
    {
      "inputs": [
        {
          "internalType": "address",
          "name": "to",
          "type": "address"
        },
        {
          "internalType": "uint256",
          "name": "tokenId",
          "type": "uint256"
        }
      ],
      "name": "approve",
      "outputs": [],
      "stateMutability": "nonpayable",
      "type": "function"
    },
    {
      "inputs": [
        {
          "internalType": "address",
          "name": "owner",
          "type": "address"
        }
      ],
      "name": "balanceOf",
      "outputs": [
        {
          "internalType": "uint256",
          "name": "",
          "type": "uint256"
        }
      ],
      "stateMutability": "view",
      "type": "function",
      "constant": true
    },
    {
      "inputs": [
        {
          "internalType": "uint256",
          "name": "tokenId",
          "type": "uint256"
        }
      ],
      "name": "getApproved",
      "outputs": [
        {
          "internalType": "address",
          "name": "",
          "type": "address"
        }
      ],
      "stateMutability": "view",
      "type": "function",
      "constant": true
    },
    {
      "inputs": [],
      "name": "hasSaleStarted",
      "outputs": [
        {
          "internalType": "bool",
          "name": "",
          "type": "bool"
        }
      ],
      "stateMutability": "view",
      "type": "function",
      "constant": true
    },
    {
      "inputs": [
        {
          "internalType": "address",
          "name": "owner",
          "type": "address"
        },
        {
          "internalType": "address",
          "name": "operator",
          "type": "address"
        }
      ],
      "name": "isApprovedForAll",
      "outputs": [
        {
          "internalType": "bool",
          "name": "",
          "type": "bool"
        }
      ],
      "stateMutability": "view",
      "type": "function",
      "constant": true
    },
    {
      "inputs": [],
      "name": "name",
      "outputs": [
        {
          "internalType": "string",
          "name": "",
          "type": "string"
        }
      ],
      "stateMutability": "view",
      "type": "function",
      "constant": true
    },
    {
      "inputs": [],
      "name": "owner",
      "outputs": [
        {
          "internalType": "address",
          "name": "",
          "type": "address"
        }
      ],
      "stateMutability": "view",
      "type": "function",
      "constant": true
    },
    {
      "inputs": [
        {
          "internalType": "uint256",
          "name": "tokenId",
          "type": "uint256"
        }
      ],
      "name": "ownerOf",
      "outputs": [
        {
          "internalType": "address",
          "name": "",
          "type": "address"
        }
      ],
      "stateMutability": "view",
      "type": "function",
      "constant": true
    },
    {
      "inputs": [],
      "name": "renounceOwnership",
      "outputs": [],
      "stateMutability": "nonpayable",
      "type": "function"
    },
    {
      "inputs": [
        {
          "internalType": "address",
          "name": "from",
          "type": "address"
        },
        {
          "internalType": "address",
          "name": "to",
          "type": "address"
        },
        {
          "internalType": "uint256",
          "name": "tokenId",
          "type": "uint256"
        }
      ],
      "name": "safeTransferFrom",
      "outputs": [],
      "stateMutability": "nonpayable",
      "type": "function"
    },
    {
      "inputs": [
        {
          "internalType": "address",
          "name": "from",
          "type": "address"
        },
        {
          "internalType": "address",
          "name": "to",
          "type": "address"
        },
        {
          "internalType": "uint256",
          "name": "tokenId",
          "type": "uint256"
        },
        {
          "internalType": "bytes",
          "name": "_data",
          "type": "bytes"
        }
      ],
      "name": "safeTransferFrom",
      "outputs": [],
      "stateMutability": "nonpayable",
      "type": "function"
    },
    {
      "inputs": [
        {
          "internalType": "address",
          "name": "operator",
          "type": "address"
        },
        {
          "internalType": "bool",
          "name": "approved",
          "type": "bool"
        }
      ],
      "name": "setApprovalForAll",
      "outputs": [],
      "stateMutability": "nonpayable",
      "type": "function"
    },
    {
      "inputs": [
        {
          "internalType": "bytes4",
          "name": "interfaceId",
          "type": "bytes4"
        }
      ],
      "name": "supportsInterface",
      "outputs": [
        {
          "internalType": "bool",
          "name": "",
          "type": "bool"
        }
      ],
      "stateMutability": "view",
      "type": "function",
      "constant": true
    },
    {
      "inputs": [],
      "name": "symbol",
      "outputs": [
        {
          "internalType": "string",
          "name": "",
          "type": "string"
        }
      ],
      "stateMutability": "view",
      "type": "function",
      "constant": true
    },
    {
      "inputs": [
        {
          "internalType": "uint256",
          "name": "index",
          "type": "uint256"
        }
      ],
      "name": "tokenByIndex",
      "outputs": [
        {
          "internalType": "uint256",
          "name": "",
          "type": "uint256"
        }
      ],
      "stateMutability": "view",
      "type": "function",
      "constant": true
    },
    {
      "inputs": [
        {
          "internalType": "address",
          "name": "owner",
          "type": "address"
        },
        {
          "internalType": "uint256",
          "name": "index",
          "type": "uint256"
        }
      ],
      "name": "tokenOfOwnerByIndex",
      "outputs": [
        {
          "internalType": "uint256",
          "name": "",
          "type": "uint256"
        }
      ],
      "stateMutability": "view",
      "type": "function",
      "constant": true
    },
    {
      "inputs": [
        {
          "internalType": "uint256",
          "name": "tokenId",
          "type": "uint256"
        }
      ],
      "name": "tokenURI",
      "outputs": [
        {
          "internalType": "string",
          "name": "",
          "type": "string"
        }
      ],
      "stateMutability": "view",
      "type": "function",
      "constant": true
    },
    {
      "inputs": [],
      "name": "totalSupply",
      "outputs": [
        {
          "internalType": "uint256",
          "name": "",
          "type": "uint256"
        }
      ],
      "stateMutability": "view",
      "type": "function",
      "constant": true
    },
    {
      "inputs": [
        {
          "internalType": "address",
          "name": "from",
          "type": "address"
        },
        {
          "internalType": "address",
          "name": "to",
          "type": "address"
        },
        {
          "internalType": "uint256",
          "name": "tokenId",
          "type": "uint256"
        }
      ],
      "name": "transferFrom",
      "outputs": [],
      "stateMutability": "nonpayable",
      "type": "function"
    },
    {
      "inputs": [
        {
          "internalType": "address",
          "name": "newOwner",
          "type": "address"
        }
      ],
      "name": "transferOwnership",
      "outputs": [],
      "stateMutability": "nonpayable",
      "type": "function"
    },
    {
      "inputs": [
        {
          "internalType": "address",
          "name": "_owner",
          "type": "address"
        }
      ],
      "name": "tokensOfOwner",
      "outputs": [
        {
          "internalType": "uint256[]",
          "name": "",
          "type": "uint256[]"
        }
      ],
      "stateMutability": "view",
      "type": "function",
      "constant": true
    },
    {
      "inputs": [],
      "name": "calculatePrice",
      "outputs": [
        {
          "internalType": "uint256",
          "name": "",
          "type": "uint256"
        }
      ],
      "stateMutability": "view",
      "type": "function",
      "constant": true
    },
    {
      "inputs": [
        {
          "internalType": "uint256",
          "name": "_id",
          "type": "uint256"
        }
      ],
      "name": "calculatePriceForToken",
      "outputs": [
        {
          "internalType": "uint256",
          "name": "",
          "type": "uint256"
        }
      ],
      "stateMutability": "pure",
      "type": "function",
      "constant": true
    },
    {
      "inputs": [
        {
          "internalType": "uint256",
          "name": "numShibas",
          "type": "uint256"
        }
      ],
      "name": "adoptShibas",
      "outputs": [],
      "stateMutability": "payable",
      "type": "function",
      "payable": true
    },
    {
      "inputs": [
        {
          "internalType": "string",
          "name": "__baseURI",
          "type": "string"
        }
      ],
      "name": "setBaseURI",
      "outputs": [],
      "stateMutability": "nonpayable",
      "type": "function"
    },
    {
      "inputs": [],
      "name": "startSale",
      "outputs": [],
      "stateMutability": "nonpayable",
      "type": "function"
    },
    {
      "inputs": [],
      "name": "pauseSale",
      "outputs": [],
      "stateMutability": "nonpayable",
      "type": "function"
    },
    {
      "inputs": [],
      "name": "withdrawAll",
      "outputs": [],
      "stateMutability": "payable",
      "type": "function",
      "payable": true
    },
    {
      "inputs": [
        {
          "internalType": "uint256",
          "name": "numShibas",
          "type": "uint256"
        }
      ],
      "name": "reserveGiveaway",
      "outputs": [],
      "stateMutability": "nonpayable",
      "type": "function"
    }
  ],
  "bytecode": "0x60806040526000600960146101000a81548160ff0219169083151502179055503480156200002c57600080fd5b506040518060400160405280600581526020017f53686962610000000000000000000000000000000000000000000000000000008152506040518060400160405280600581526020017f53484942410000000000000000000000000000000000000000000000000000008152508160009080519060200190620000b19291906200018c565b508060019080519060200190620000ca9291906200018c565b5050506000620000df6200018460201b60201c565b905080600960006101000a81548173ffffffffffffffffffffffffffffffffffffffff021916908373ffffffffffffffffffffffffffffffffffffffff1602179055508073ffffffffffffffffffffffffffffffffffffffff16600073ffffffffffffffffffffffffffffffffffffffff167f8be0079c531659141344cd1fd0a4f28419497f9722a3daafe3b4186f6b6457e060405160405180910390a350620002a1565b600033905090565b8280546200019a906200023c565b90600052602060002090601f016020900481019282620001be57600085556200020a565b82601f10620001d957805160ff19168380011785556200020a565b828001600101855582156200020a579182015b8281111562000209578251825591602001919060010190620001ec565b5b5090506200021991906200021d565b5090565b5b80821115620002385760008160009055506001016200021e565b5090565b600060028204905060018216806200025557607f821691505b602082108114156200026c576200026b62000272565b5b50919050565b7f4e487b7100000000000000000000000000000000000000000000000000000000600052602260045260246000fd5b6142e780620002b16000396000f3fe6080604052600436106101d85760003560e01c806370a0823111610102578063b66a0e5d11610095578063d348b40911610064578063d348b4091461068e578063e985e9c5146106b9578063f0c9dc60146106f6578063f2fde38b14610721576101d8565b8063b66a0e5d146105f5578063b6be9fa31461060c578063b88d4fde14610628578063c87b56dd14610651576101d8565b80638da5cb5b116100d15780638da5cb5b1461054d57806395d89b4114610578578063a22cb465146105a3578063a40f1aa5146105cc576101d8565b806370a08231146104b2578063715018a6146104ef5780638462151c14610506578063853828b614610543576101d8565b806323b872dd1161017a57806355367ba91161014957806355367ba9146103f857806355f804b31461040f5780636352211e146104385780636fd9537f14610475576101d8565b806323b872dd1461032c5780632f745c591461035557806342842e0e146103925780634f6ccce7146103bb576101d8565b8063095ea7b3116101b6578063095ea7b314610282578063133385f3146102ab57806318160ddd146102d65780631c8b232d14610301576101d8565b806301ffc9a7146101dd57806306fdde031461021a578063081812fc14610245575b600080fd5b3480156101e957600080fd5b5061020460048036038101906101ff9190612e73565b61074a565b6040516102119190613456565b60405180910390f35b34801561022657600080fd5b5061022f6107c4565b60405161023c9190613471565b60405180910390f35b34801561025157600080fd5b5061026c60048036038101906102679190612f06565b610856565b60405161027991906133cd565b60405180910390f35b34801561028e57600080fd5b506102a960048036038101906102a49190612e37565b6108db565b005b3480156102b757600080fd5b506102c06109f3565b6040516102cd9190613773565b60405180910390f35b3480156102e257600080fd5b506102eb6109f9565b6040516102f89190613773565b60405180910390f35b34801561030d57600080fd5b50610316610a03565b6040516103239190613456565b60405180910390f35b34801561033857600080fd5b50610353600480360381019061034e9190612d31565b610a16565b005b34801561036157600080fd5b5061037c60048036038101906103779190612e37565b610a76565b6040516103899190613773565b60405180910390f35b34801561039e57600080fd5b506103b960048036038101906103b49190612d31565b610b1b565b005b3480156103c757600080fd5b506103e260048036038101906103dd9190612f06565b610b3b565b6040516103ef9190613773565b60405180910390f35b34801561040457600080fd5b5061040d610b8e565b005b34801561041b57600080fd5b5061043660048036038101906104319190612ec5565b610c27565b005b34801561044457600080fd5b5061045f600480360381019061045a9190612f06565b610cbd565b60405161046c91906133cd565b60405180910390f35b34801561048157600080fd5b5061049c60048036038101906104979190612f06565b610d6f565b6040516104a99190613773565b60405180910390f35b3480156104be57600080fd5b506104d960048036038101906104d49190612ccc565b610e58565b6040516104e69190613773565b60405180910390f35b3480156104fb57600080fd5b50610504610f10565b005b34801561051257600080fd5b5061052d60048036038101906105289190612ccc565b61104d565b60405161053a9190613434565b60405180910390f35b61054b6111c9565b005b34801561055957600080fd5b50610562611285565b60405161056f91906133cd565b60405180910390f35b34801561058457600080fd5b5061058d6112af565b60405161059a9190613471565b60405180910390f35b3480156105af57600080fd5b506105ca60048036038101906105c59190612dfb565b611341565b005b3480156105d857600080fd5b506105f360048036038101906105ee9190612f06565b6114c2565b005b34801561060157600080fd5b5061060a6115d8565b005b61062660048036038101906106219190612f06565b611671565b005b34801561063457600080fd5b5061064f600480360381019061064a9190612d80565b6117f0565b005b34801561065d57600080fd5b5061067860048036038101906106739190612f06565b611852565b6040516106859190613471565b60405180910390f35b34801561069a57600080fd5b506106a36118f9565b6040516106b09190613773565b60405180910390f35b3480156106c557600080fd5b506106e060048036038101906106db9190612cf5565b611910565b6040516106ed9190613456565b60405180910390f35b34801561070257600080fd5b5061070b6119a4565b6040516107189190613471565b60405180910390f35b34801561072d57600080fd5b5061074860048036038101906107439190612ccc565b6119c0565b005b60007f780e9d63000000000000000000000000000000000000000000000000000000007bffffffffffffffffffffffffffffffffffffffffffffffffffffffff1916827bffffffffffffffffffffffffffffffffffffffffffffffffffffffff191614806107bd57506107bc82611b6c565b5b9050919050565b6060600080546107d390613a5c565b80601f01602080910402602001604051908101604052809291908181526020018280546107ff90613a5c565b801561084c5780601f106108215761010080835404028352916020019161084c565b820191906000526020600020905b81548152906001019060200180831161082f57829003601f168201915b5050505050905090565b600061086182611c4e565b6108a0576040517f08c379a000000000000000000000000000000000000000000000000000000000815260040161089790613633565b60405180910390fd5b6004600083815260200190815260200160002060009054906101000a900473ffffffffffffffffffffffffffffffffffffffff169050919050565b60006108e682610cbd565b90508073ffffffffffffffffffffffffffffffffffffffff168373ffffffffffffffffffffffffffffffffffffffff161415610957576040517f08c379a000000000000000000000000000000000000000000000000000000000815260040161094e906136d3565b60405180910390fd5b8073ffffffffffffffffffffffffffffffffffffffff16610976611cba565b73ffffffffffffffffffffffffffffffffffffffff1614806109a557506109a48161099f611cba565b611910565b5b6109e4576040517f08c379a00000000000000000000000000000000000000000000000000000000081526004016109db90613593565b60405180910390fd5b6109ee8383611cc2565b505050565b6103e881565b6000600854905090565b600960149054906101000a900460ff1681565b610a27610a21611cba565b82611d7b565b610a66576040517f08c379a0000000000000000000000000000000000000000000000000000000008152600401610a5d90613713565b60405180910390fd5b610a71838383611e59565b505050565b6000610a8183610e58565b8210610ac2576040517f08c379a0000000000000000000000000000000000000000000000000000000008152600401610ab990613493565b60405180910390fd5b600660008473ffffffffffffffffffffffffffffffffffffffff1673ffffffffffffffffffffffffffffffffffffffff168152602001908152602001600020600083815260200190815260200160002054905092915050565b610b36838383604051806020016040528060008152506117f0565b505050565b6000610b456109f9565b8210610b86576040517f08c379a0000000000000000000000000000000000000000000000000000000008152600401610b7d90613733565b60405180910390fd5b819050919050565b610b96611cba565b73ffffffffffffffffffffffffffffffffffffffff16610bb4611285565b73ffffffffffffffffffffffffffffffffffffffff1614610c0a576040517f08c379a0000000000000000000000000000000000000000000000000000000008152600401610c0190613673565b60405180910390fd5b6000600960146101000a81548160ff021916908315150217905550565b610c2f611cba565b73ffffffffffffffffffffffffffffffffffffffff16610c4d611285565b73ffffffffffffffffffffffffffffffffffffffff1614610ca3576040517f08c379a0000000000000000000000000000000000000000000000000000000008152600401610c9a90613673565b60405180910390fd5b80600a9080519060200190610cb9929190612af0565b5050565b6000806002600084815260200190815260200160002060009054906101000a900473ffffffffffffffffffffffffffffffffffffffff169050600073ffffffffffffffffffffffffffffffffffffffff168173ffffffffffffffffffffffffffffffffffffffff161415610d66576040517f08c379a0000000000000000000000000000000000000000000000000000000008152600401610d5d906135d3565b60405180910390fd5b80915050919050565b60006103e88210610db5576040517f08c379a0000000000000000000000000000000000000000000000000000000008152600401610dac906136f3565b60405180910390fd5b6103848210610dce57670de0b6b3a76400009050610e53565b6103208210610de7576708e1bc9bf04000009050610e53565b6102588210610e0057670470de4df82000009050610e53565b6101908210610e19576702386f26fc1000009050610e53565b60c88210610e315767011c37937e0800009050610e53565b60648210610e4857668e1bc9bf0400009050610e53565b66470de4df82000090505b919050565b60008073ffffffffffffffffffffffffffffffffffffffff168273ffffffffffffffffffffffffffffffffffffffff161415610ec9576040517f08c379a0000000000000000000000000000000000000000000000000000000008152600401610ec0906135b3565b60405180910390fd5b600360008373ffffffffffffffffffffffffffffffffffffffff1673ffffffffffffffffffffffffffffffffffffffff168152602001908152602001600020549050919050565b610f18611cba565b73ffffffffffffffffffffffffffffffffffffffff16610f36611285565b73ffffffffffffffffffffffffffffffffffffffff1614610f8c576040517f08c379a0000000000000000000000000000000000000000000000000000000008152600401610f8390613673565b60405180910390fd5b600073ffffffffffffffffffffffffffffffffffffffff16600960009054906101000a900473ffffffffffffffffffffffffffffffffffffffff1673ffffffffffffffffffffffffffffffffffffffff167f8be0079c531659141344cd1fd0a4f28419497f9722a3daafe3b4186f6b6457e060405160405180910390a36000600960006101000a81548173ffffffffffffffffffffffffffffffffffffffff021916908373ffffffffffffffffffffffffffffffffffffffff160217905550565b6060600061105a83610e58565b905060008114156110dd57600067ffffffffffffffff8111156110a6577f4e487b7100000000000000000000000000000000000000000000000000000000600052604160045260246000fd5b6040519080825280602002602001820160405280156110d45781602001602082028036833780820191505090505b509150506111c4565b60008167ffffffffffffffff81111561111f577f4e487b7100000000000000000000000000000000000000000000000000000000600052604160045260246000fd5b60405190808252806020026020018201604052801561114d5781602001602082028036833780820191505090505b50905060005b828110156111bd576111658582610a76565b82828151811061119e577f4e487b7100000000000000000000000000000000000000000000000000000000600052603260045260246000fd5b60200260200101818152505080806111b590613abf565b915050611153565b5080925050505b919050565b6111d1611cba565b73ffffffffffffffffffffffffffffffffffffffff166111ef611285565b73ffffffffffffffffffffffffffffffffffffffff1614611245576040517f08c379a000000000000000000000000000000000000000000000000000000000815260040161123c90613673565b60405180910390fd5b3373ffffffffffffffffffffffffffffffffffffffff166108fc479081150290604051600060405180830381858888f1935050505061128357600080fd5b565b6000600960009054906101000a900473ffffffffffffffffffffffffffffffffffffffff16905090565b6060600180546112be90613a5c565b80601f01602080910402602001604051908101604052809291908181526020018280546112ea90613a5c565b80156113375780601f1061130c57610100808354040283529160200191611337565b820191906000526020600020905b81548152906001019060200180831161131a57829003601f168201915b5050505050905090565b611349611cba565b73ffffffffffffffffffffffffffffffffffffffff168273ffffffffffffffffffffffffffffffffffffffff1614156113b7576040517f08c379a00000000000000000000000000000000000000000000000000000000081526004016113ae90613533565b60405180910390fd5b80600560006113c4611cba565b73ffffffffffffffffffffffffffffffffffffffff1673ffffffffffffffffffffffffffffffffffffffff16815260200190815260200160002060008473ffffffffffffffffffffffffffffffffffffffff1673ffffffffffffffffffffffffffffffffffffffff16815260200190815260200160002060006101000a81548160ff0219169083151502179055508173ffffffffffffffffffffffffffffffffffffffff16611471611cba565b73ffffffffffffffffffffffffffffffffffffffff167f17307eab39ab6107e8899845ad3d59bd9653f200f220920489ca2b5937696c31836040516114b69190613456565b60405180910390a35050565b6114ca611cba565b73ffffffffffffffffffffffffffffffffffffffff166114e8611285565b73ffffffffffffffffffffffffffffffffffffffff161461153e576040517f08c379a000000000000000000000000000000000000000000000000000000000815260040161153590613673565b60405180910390fd5b60006115486109f9565b9050600a82826115589190613891565b1115611599576040517f08c379a000000000000000000000000000000000000000000000000000000000815260040161159090613753565b60405180910390fd5b60005b828110156115d3576115c06115af611285565b82846115bb9190613891565b6120b5565b80806115cb90613abf565b91505061159c565b505050565b6115e0611cba565b73ffffffffffffffffffffffffffffffffffffffff166115fe611285565b73ffffffffffffffffffffffffffffffffffffffff1614611654576040517f08c379a000000000000000000000000000000000000000000000000000000000815260040161164b90613673565b60405180910390fd5b6001600960146101000a81548160ff021916908315150217905550565b600061167b6109f9565b90506103e881106116c1576040517f08c379a00000000000000000000000000000000000000000000000000000000081526004016116b8906136f3565b60405180910390fd5b6103e882826116d09190613891565b1115611711576040517f08c379a000000000000000000000000000000000000000000000000000000000815260040161170890613573565b60405180910390fd5b600082118015611722575060148211155b611761576040517f08c379a000000000000000000000000000000000000000000000000000000000815260040161175890613653565b60405180910390fd5b8161176a6118f9565b6117749190613918565b3410156117b6576040517f08c379a00000000000000000000000000000000000000000000000000000000081526004016117ad906135f3565b60405180910390fd5b60005b828110156117eb5760006117cb6109f9565b90506117d733826120b5565b5080806117e390613abf565b9150506117b9565b505050565b6118016117fb611cba565b83611d7b565b611840576040517f08c379a000000000000000000000000000000000000000000000000000000000815260040161183790613713565b60405180910390fd5b61184c848484846120d3565b50505050565b606061185d82611c4e565b61189c576040517f08c379a0000000000000000000000000000000000000000000000000000000008152600401611893906136b3565b60405180910390fd5b60006118a661212f565b905060008151116118c657604051806020016040528060008152506118f1565b806118d0846121c1565b6040516020016118e19291906133a9565b6040516020818303038152906040525b915050919050565b600061190b6119066109f9565b610d6f565b905090565b6000600560008473ffffffffffffffffffffffffffffffffffffffff1673ffffffffffffffffffffffffffffffffffffffff16815260200190815260200160002060008373ffffffffffffffffffffffffffffffffffffffff1673ffffffffffffffffffffffffffffffffffffffff16815260200190815260200160002060009054906101000a900460ff16905092915050565b6040518060600160405280604081526020016142726040913981565b6119c8611cba565b73ffffffffffffffffffffffffffffffffffffffff166119e6611285565b73ffffffffffffffffffffffffffffffffffffffff1614611a3c576040517f08c379a0000000000000000000000000000000000000000000000000000000008152600401611a3390613673565b60405180910390fd5b600073ffffffffffffffffffffffffffffffffffffffff168173ffffffffffffffffffffffffffffffffffffffff161415611aac576040517f08c379a0000000000000000000000000000000000000000000000000000000008152600401611aa3906134d3565b60405180910390fd5b8073ffffffffffffffffffffffffffffffffffffffff16600960009054906101000a900473ffffffffffffffffffffffffffffffffffffffff1673ffffffffffffffffffffffffffffffffffffffff167f8be0079c531659141344cd1fd0a4f28419497f9722a3daafe3b4186f6b6457e060405160405180910390a380600960006101000a81548173ffffffffffffffffffffffffffffffffffffffff021916908373ffffffffffffffffffffffffffffffffffffffff16021790555050565b60007f80ac58cd000000000000000000000000000000000000000000000000000000007bffffffffffffffffffffffffffffffffffffffffffffffffffffffff1916827bffffffffffffffffffffffffffffffffffffffffffffffffffffffff19161480611c3757507f5b5e139f000000000000000000000000000000000000000000000000000000007bffffffffffffffffffffffffffffffffffffffffffffffffffffffff1916827bffffffffffffffffffffffffffffffffffffffffffffffffffffffff1916145b80611c475750611c468261236e565b5b9050919050565b60008073ffffffffffffffffffffffffffffffffffffffff166002600084815260200190815260200160002060009054906101000a900473ffffffffffffffffffffffffffffffffffffffff1673ffffffffffffffffffffffffffffffffffffffff1614159050919050565b600033905090565b816004600083815260200190815260200160002060006101000a81548173ffffffffffffffffffffffffffffffffffffffff021916908373ffffffffffffffffffffffffffffffffffffffff160217905550808273ffffffffffffffffffffffffffffffffffffffff16611d3583610cbd565b73ffffffffffffffffffffffffffffffffffffffff167f8c5be1e5ebec7d5bd14f71427d1e84f3dd0314c0f7b2291e5b200ac8c7c3b92560405160405180910390a45050565b6000611d8682611c4e565b611dc5576040517f08c379a0000000000000000000000000000000000000000000000000000000008152600401611dbc90613553565b60405180910390fd5b6000611dd083610cbd565b90508073ffffffffffffffffffffffffffffffffffffffff168473ffffffffffffffffffffffffffffffffffffffff161480611e3f57508373ffffffffffffffffffffffffffffffffffffffff16611e2784610856565b73ffffffffffffffffffffffffffffffffffffffff16145b80611e505750611e4f8185611910565b5b91505092915050565b8273ffffffffffffffffffffffffffffffffffffffff16611e7982610cbd565b73ffffffffffffffffffffffffffffffffffffffff1614611ecf576040517f08c379a0000000000000000000000000000000000000000000000000000000008152600401611ec690613693565b60405180910390fd5b600073ffffffffffffffffffffffffffffffffffffffff168273ffffffffffffffffffffffffffffffffffffffff161415611f3f576040517f08c379a0000000000000000000000000000000000000000000000000000000008152600401611f3690613513565b60405180910390fd5b611f4a8383836123d8565b611f55600082611cc2565b6001600360008573ffffffffffffffffffffffffffffffffffffffff1673ffffffffffffffffffffffffffffffffffffffff1681526020019081526020016000206000828254611fa59190613972565b925050819055506001600360008473ffffffffffffffffffffffffffffffffffffffff1673ffffffffffffffffffffffffffffffffffffffff1681526020019081526020016000206000828254611ffc9190613891565b92505081905550816002600083815260200190815260200160002060006101000a81548173ffffffffffffffffffffffffffffffffffffffff021916908373ffffffffffffffffffffffffffffffffffffffff160217905550808273ffffffffffffffffffffffffffffffffffffffff168473ffffffffffffffffffffffffffffffffffffffff167fddf252ad1be2c89b69c2b068fc378daa952ba7f163c4a11628f55a4df523b3ef60405160405180910390a4505050565b6120cf82826040518060200160405280600081525061252c565b5050565b6120de848484611e59565b6120ea84848484612587565b612129576040517f08c379a0000000000000000000000000000000000000000000000000000000008152600401612120906134b3565b60405180910390fd5b50505050565b6060600a805461213e90613a5c565b80601f016020809104026020016040519081016040528092919081815260200182805461216a90613a5c565b80156121b75780601f1061218c576101008083540402835291602001916121b7565b820191906000526020600020905b81548152906001019060200180831161219a57829003601f168201915b5050505050905090565b60606000821415612209576040518060400160405280600181526020017f30000000000000000000000000000000000000000000000000000000000000008152509050612369565b600082905060005b6000821461223b57808061222490613abf565b915050600a8261223491906138e7565b9150612211565b60008167ffffffffffffffff81111561227d577f4e487b7100000000000000000000000000000000000000000000000000000000600052604160045260246000fd5b6040519080825280601f01601f1916602001820160405280156122af5781602001600182028036833780820191505090505b5090505b60008514612362576001826122c89190613972565b9150600a856122d79190613b08565b60306122e39190613891565b60f81b81838151811061231f577f4e487b7100000000000000000000000000000000000000000000000000000000600052603260045260246000fd5b60200101907effffffffffffffffffffffffffffffffffffffffffffffffffffffffffffff1916908160001a905350600a8561235b91906138e7565b94506122b3565b8093505050505b919050565b60007f01ffc9a7000000000000000000000000000000000000000000000000000000007bffffffffffffffffffffffffffffffffffffffffffffffffffffffff1916827bffffffffffffffffffffffffffffffffffffffffffffffffffffffff1916149050919050565b6123e383838361271e565b600073ffffffffffffffffffffffffffffffffffffffff168373ffffffffffffffffffffffffffffffffffffffff16141561246f576008548114612450577f4e487b7100000000000000000000000000000000000000000000000000000000600052600160045260246000fd5b6001600860008282546124639190613891565b925050819055506124ae565b8173ffffffffffffffffffffffffffffffffffffffff168373ffffffffffffffffffffffffffffffffffffffff16146124ad576124ac8382612723565b5b5b600073ffffffffffffffffffffffffffffffffffffffff168273ffffffffffffffffffffffffffffffffffffffff1614156124e857612527565b8273ffffffffffffffffffffffffffffffffffffffff168273ffffffffffffffffffffffffffffffffffffffff1614612526576125258282612890565b5b5b505050565b612536838361290f565b6125436000848484612587565b612582576040517f08c379a0000000000000000000000000000000000000000000000000000000008152600401612579906134b3565b60405180910390fd5b505050565b60006125a88473ffffffffffffffffffffffffffffffffffffffff16612add565b15612711578373ffffffffffffffffffffffffffffffffffffffff1663150b7a026125d1611cba565b8786866040518563ffffffff1660e01b81526004016125f394939291906133e8565b602060405180830381600087803b15801561260d57600080fd5b505af192505050801561263e57506040513d601f19601f8201168201806040525081019061263b9190612e9c565b60015b6126c1573d806000811461266e576040519150601f19603f3d011682016040523d82523d6000602084013e612673565b606091505b506000815114156126b9576040517f08c379a00000000000000000000000000000000000000000000000000000000081526004016126b0906134b3565b60405180910390fd5b805181602001fd5b63150b7a0260e01b7bffffffffffffffffffffffffffffffffffffffffffffffffffffffff1916817bffffffffffffffffffffffffffffffffffffffffffffffffffffffff191614915050612716565b600190505b949350505050565b505050565b6000600161273084610e58565b61273a9190613972565b905060006007600084815260200190815260200160002054905081811461281f576000600660008673ffffffffffffffffffffffffffffffffffffffff1673ffffffffffffffffffffffffffffffffffffffff168152602001908152602001600020600084815260200190815260200160002054905080600660008773ffffffffffffffffffffffffffffffffffffffff1673ffffffffffffffffffffffffffffffffffffffff168152602001908152602001600020600084815260200190815260200160002081905550816007600083815260200190815260200160002081905550505b6007600084815260200190815260200160002060009055600660008573ffffffffffffffffffffffffffffffffffffffff1673ffffffffffffffffffffffffffffffffffffffff16815260200190815260200160002060008381526020019081526020016000206000905550505050565b600061289b83610e58565b905081600660008573ffffffffffffffffffffffffffffffffffffffff1673ffffffffffffffffffffffffffffffffffffffff168152602001908152602001600020600083815260200190815260200160002081905550806007600084815260200190815260200160002081905550505050565b600073ffffffffffffffffffffffffffffffffffffffff168273ffffffffffffffffffffffffffffffffffffffff16141561297f576040517f08c379a000000000000000000000000000000000000000000000000000000000815260040161297690613613565b60405180910390fd5b61298881611c4e565b156129c8576040517f08c379a00000000000000000000000000000000000000000000000000000000081526004016129bf906134f3565b60405180910390fd5b6129d4600083836123d8565b6001600360008473ffffffffffffffffffffffffffffffffffffffff1673ffffffffffffffffffffffffffffffffffffffff1681526020019081526020016000206000828254612a249190613891565b92505081905550816002600083815260200190815260200160002060006101000a81548173ffffffffffffffffffffffffffffffffffffffff021916908373ffffffffffffffffffffffffffffffffffffffff160217905550808273ffffffffffffffffffffffffffffffffffffffff16600073ffffffffffffffffffffffffffffffffffffffff167fddf252ad1be2c89b69c2b068fc378daa952ba7f163c4a11628f55a4df523b3ef60405160405180910390a45050565b600080823b905060008111915050919050565b828054612afc90613a5c565b90600052602060002090601f016020900481019282612b1e5760008555612b65565b82601f10612b3757805160ff1916838001178555612b65565b82800160010185558215612b65579182015b82811115612b64578251825591602001919060010190612b49565b5b509050612b729190612b76565b5090565b5b80821115612b8f576000816000905550600101612b77565b5090565b6000612ba6612ba1846137b3565b61378e565b905082815260208101848484011115612bbe57600080fd5b612bc9848285613a1a565b509392505050565b6000612be4612bdf846137e4565b61378e565b905082815260208101848484011115612bfc57600080fd5b612c07848285613a1a565b509392505050565b600081359050612c1e81614215565b92915050565b600081359050612c338161422c565b92915050565b600081359050612c4881614243565b92915050565b600081519050612c5d81614243565b92915050565b600082601f830112612c7457600080fd5b8135612c84848260208601612b93565b91505092915050565b600082601f830112612c9e57600080fd5b8135612cae848260208601612bd1565b91505092915050565b600081359050612cc68161425a565b92915050565b600060208284031215612cde57600080fd5b6000612cec84828501612c0f565b91505092915050565b60008060408385031215612d0857600080fd5b6000612d1685828601612c0f565b9250506020612d2785828601612c0f565b9150509250929050565b600080600060608486031215612d4657600080fd5b6000612d5486828701612c0f565b9350506020612d6586828701612c0f565b9250506040612d7686828701612cb7565b9150509250925092565b60008060008060808587031215612d9657600080fd5b6000612da487828801612c0f565b9450506020612db587828801612c0f565b9350506040612dc687828801612cb7565b925050606085013567ffffffffffffffff811115612de357600080fd5b612def87828801612c63565b91505092959194509250565b60008060408385031215612e0e57600080fd5b6000612e1c85828601612c0f565b9250506020612e2d85828601612c24565b9150509250929050565b60008060408385031215612e4a57600080fd5b6000612e5885828601612c0f565b9250506020612e6985828601612cb7565b9150509250929050565b600060208284031215612e8557600080fd5b6000612e9384828501612c39565b91505092915050565b600060208284031215612eae57600080fd5b6000612ebc84828501612c4e565b91505092915050565b600060208284031215612ed757600080fd5b600082013567ffffffffffffffff811115612ef157600080fd5b612efd84828501612c8d565b91505092915050565b600060208284031215612f1857600080fd5b6000612f2684828501612cb7565b91505092915050565b6000612f3b838361338b565b60208301905092915050565b612f50816139a6565b82525050565b6000612f6182613825565b612f6b8185613853565b9350612f7683613815565b8060005b83811015612fa7578151612f8e8882612f2f565b9750612f9983613846565b925050600181019050612f7a565b5085935050505092915050565b612fbd816139b8565b82525050565b6000612fce82613830565b612fd88185613864565b9350612fe8818560208601613a29565b612ff181613bf5565b840191505092915050565b60006130078261383b565b6130118185613875565b9350613021818560208601613a29565b61302a81613bf5565b840191505092915050565b60006130408261383b565b61304a8185613886565b935061305a818560208601613a29565b80840191505092915050565b6000613073602b83613875565b915061307e82613c06565b604082019050919050565b6000613096603283613875565b91506130a182613c55565b604082019050919050565b60006130b9602683613875565b91506130c482613ca4565b604082019050919050565b60006130dc601c83613875565b91506130e782613cf3565b602082019050919050565b60006130ff602483613875565b915061310a82613d1c565b604082019050919050565b6000613122601983613875565b915061312d82613d6b565b602082019050919050565b6000613145602c83613875565b915061315082613d94565b604082019050919050565b6000613168601c83613875565b915061317382613de3565b602082019050919050565b600061318b603883613875565b915061319682613e0c565b604082019050919050565b60006131ae602a83613875565b91506131b982613e5b565b604082019050919050565b60006131d1602983613875565b91506131dc82613eaa565b604082019050919050565b60006131f4602383613875565b91506131ff82613ef9565b604082019050919050565b6000613217602083613875565b915061322282613f48565b602082019050919050565b600061323a602c83613875565b915061324582613f71565b604082019050919050565b600061325d602a83613875565b915061326882613fc0565b604082019050919050565b6000613280602083613875565b915061328b8261400f565b602082019050919050565b60006132a3602983613875565b91506132ae82614038565b604082019050919050565b60006132c6602f83613875565b91506132d182614087565b604082019050919050565b60006132e9602183613875565b91506132f4826140d6565b604082019050919050565b600061330c601683613875565b915061331782614125565b602082019050919050565b600061332f603183613875565b915061333a8261414e565b604082019050919050565b6000613352602c83613875565b915061335d8261419d565b604082019050919050565b6000613375601783613875565b9150613380826141ec565b602082019050919050565b61339481613a10565b82525050565b6133a381613a10565b82525050565b60006133b58285613035565b91506133c18284613035565b91508190509392505050565b60006020820190506133e26000830184612f47565b92915050565b60006080820190506133fd6000830187612f47565b61340a6020830186612f47565b613417604083018561339a565b81810360608301526134298184612fc3565b905095945050505050565b6000602082019050818103600083015261344e8184612f56565b905092915050565b600060208201905061346b6000830184612fb4565b92915050565b6000602082019050818103600083015261348b8184612ffc565b905092915050565b600060208201905081810360008301526134ac81613066565b9050919050565b600060208201905081810360008301526134cc81613089565b9050919050565b600060208201905081810360008301526134ec816130ac565b9050919050565b6000602082019050818103600083015261350c816130cf565b9050919050565b6000602082019050818103600083015261352c816130f2565b9050919050565b6000602082019050818103600083015261354c81613115565b9050919050565b6000602082019050818103600083015261356c81613138565b9050919050565b6000602082019050818103600083015261358c8161315b565b9050919050565b600060208201905081810360008301526135ac8161317e565b9050919050565b600060208201905081810360008301526135cc816131a1565b9050919050565b600060208201905081810360008301526135ec816131c4565b9050919050565b6000602082019050818103600083015261360c816131e7565b9050919050565b6000602082019050818103600083015261362c8161320a565b9050919050565b6000602082019050818103600083015261364c8161322d565b9050919050565b6000602082019050818103600083015261366c81613250565b9050919050565b6000602082019050818103600083015261368c81613273565b9050919050565b600060208201905081810360008301526136ac81613296565b9050919050565b600060208201905081810360008301526136cc816132b9565b9050919050565b600060208201905081810360008301526136ec816132dc565b9050919050565b6000602082019050818103600083015261370c816132ff565b9050919050565b6000602082019050818103600083015261372c81613322565b9050919050565b6000602082019050818103600083015261374c81613345565b9050919050565b6000602082019050818103600083015261376c81613368565b9050919050565b6000602082019050613788600083018461339a565b92915050565b60006137986137a9565b90506137a48282613a8e565b919050565b6000604051905090565b600067ffffffffffffffff8211156137ce576137cd613bc6565b5b6137d782613bf5565b9050602081019050919050565b600067ffffffffffffffff8211156137ff576137fe613bc6565b5b61380882613bf5565b9050602081019050919050565b6000819050602082019050919050565b600081519050919050565b600081519050919050565b600081519050919050565b6000602082019050919050565b600082825260208201905092915050565b600082825260208201905092915050565b600082825260208201905092915050565b600081905092915050565b600061389c82613a10565b91506138a783613a10565b9250827fffffffffffffffffffffffffffffffffffffffffffffffffffffffffffffffff038211156138dc576138db613b39565b5b828201905092915050565b60006138f282613a10565b91506138fd83613a10565b92508261390d5761390c613b68565b5b828204905092915050565b600061392382613a10565b915061392e83613a10565b9250817fffffffffffffffffffffffffffffffffffffffffffffffffffffffffffffffff048311821515161561396757613966613b39565b5b828202905092915050565b600061397d82613a10565b915061398883613a10565b92508282101561399b5761399a613b39565b5b828203905092915050565b60006139b1826139f0565b9050919050565b60008115159050919050565b60007fffffffff0000000000000000000000000000000000000000000000000000000082169050919050565b600073ffffffffffffffffffffffffffffffffffffffff82169050919050565b6000819050919050565b82818337600083830152505050565b60005b83811015613a47578082015181840152602081019050613a2c565b83811115613a56576000848401525b50505050565b60006002820490506001821680613a7457607f821691505b60208210811415613a8857613a87613b97565b5b50919050565b613a9782613bf5565b810181811067ffffffffffffffff82111715613ab657613ab5613bc6565b5b80604052505050565b6000613aca82613a10565b91507fffffffffffffffffffffffffffffffffffffffffffffffffffffffffffffffff821415613afd57613afc613b39565b5b600182019050919050565b6000613b1382613a10565b9150613b1e83613a10565b925082613b2e57613b2d613b68565b5b828206905092915050565b7f4e487b7100000000000000000000000000000000000000000000000000000000600052601160045260246000fd5b7f4e487b7100000000000000000000000000000000000000000000000000000000600052601260045260246000fd5b7f4e487b7100000000000000000000000000000000000000000000000000000000600052602260045260246000fd5b7f4e487b7100000000000000000000000000000000000000000000000000000000600052604160045260246000fd5b6000601f19601f8301169050919050565b7f455243373231456e756d657261626c653a206f776e657220696e646578206f7560008201527f74206f6620626f756e6473000000000000000000000000000000000000000000602082015250565b7f4552433732313a207472616e7366657220746f206e6f6e20455243373231526560008201527f63656976657220696d706c656d656e7465720000000000000000000000000000602082015250565b7f4f776e61626c653a206e6577206f776e657220697320746865207a65726f206160008201527f6464726573730000000000000000000000000000000000000000000000000000602082015250565b7f4552433732313a20746f6b656e20616c7265616479206d696e74656400000000600082015250565b7f4552433732313a207472616e7366657220746f20746865207a65726f2061646460008201527f7265737300000000000000000000000000000000000000000000000000000000602082015250565b7f4552433732313a20617070726f766520746f2063616c6c657200000000000000600082015250565b7f4552433732313a206f70657261746f7220717565727920666f72206e6f6e657860008201527f697374656e7420746f6b656e0000000000000000000000000000000000000000602082015250565b7f45786365656473206d6178696d756d20536869626120737570706c7900000000600082015250565b7f4552433732313a20617070726f76652063616c6c6572206973206e6f74206f7760008201527f6e6572206e6f7220617070726f76656420666f7220616c6c0000000000000000602082015250565b7f4552433732313a2062616c616e636520717565727920666f7220746865207a6560008201527f726f206164647265737300000000000000000000000000000000000000000000602082015250565b7f4552433732313a206f776e657220717565727920666f72206e6f6e657869737460008201527f656e7420746f6b656e0000000000000000000000000000000000000000000000602082015250565b7f45746865722076616c75652073656e742069732062656c6f772074686520707260008201527f6963650000000000000000000000000000000000000000000000000000000000602082015250565b7f4552433732313a206d696e7420746f20746865207a65726f2061646472657373600082015250565b7f4552433732313a20617070726f76656420717565727920666f72206e6f6e657860008201527f697374656e7420746f6b656e0000000000000000000000000000000000000000602082015250565b7f596f752063616e2061646f7074206d696e696d756d20312c206d6178696d756d60008201527f2032302073686962617300000000000000000000000000000000000000000000602082015250565b7f4f776e61626c653a2063616c6c6572206973206e6f7420746865206f776e6572600082015250565b7f4552433732313a207472616e73666572206f6620746f6b656e2074686174206960008201527f73206e6f74206f776e0000000000000000000000000000000000000000000000602082015250565b7f4552433732314d657461646174613a2055524920717565727920666f72206e6f60008201527f6e6578697374656e7420746f6b656e0000000000000000000000000000000000602082015250565b7f4552433732313a20617070726f76616c20746f2063757272656e74206f776e6560008201527f7200000000000000000000000000000000000000000000000000000000000000602082015250565b7f53616c652068617320616c726561647920656e64656400000000000000000000600082015250565b7f4552433732313a207472616e736665722063616c6c6572206973206e6f74206f60008201527f776e6572206e6f7220617070726f766564000000000000000000000000000000602082015250565b7f455243373231456e756d657261626c653a20676c6f62616c20696e646578206f60008201527f7574206f6620626f756e64730000000000000000000000000000000000000000602082015250565b7f4578636565646564206769766561776179206c696d6974000000000000000000600082015250565b61421e816139a6565b811461422957600080fd5b50565b614235816139b8565b811461424057600080fd5b50565b61424c816139c4565b811461425757600080fd5b50565b61426381613a10565b811461426e57600080fd5b5056fe33623637656231663163643234366561316334366661613362613734393261636138316338346233323066383333346539336366306634363066663562346134a26469706673582212208fc86f1807b7bc067a85b2cd32d5fbe734f84c444b62a90054754d8c8f5bcf9e64736f6c63430008030033",
  "immutableReferences": {},
  "source": "// SPDX-License-Identifier: MIT\npragma solidity ^0.8.0;\n\nimport \"./access/Ownable.sol\";\nimport \"./token/ERC721/ERC721.sol\";\nimport \"./ERC721EnumerableNew.sol\";\n\ncontract Shibas is ERC721EnumerableNew, Ownable {\n    // Maximum amount of Shibas in existance. Ever.\n    uint public constant MAX_SHIBA_SUPPLY = 1000;\n\n    // The provenance hash of all Shibas. (Root hash of all Shiba hashes concatenated)\n    string public constant METADATA_PROVENANCE_HASH =\n        \"3b67eb1f1cd246ea1c46faa3ba7492aca81c84b320f8334e93cf0f460ff5b4a4\";\n\n    // Sale switch.\n    bool public hasSaleStarted = false;\n\n    // Base URI of Shiba's metadata\n    string private baseURI;\n\n    constructor() ERC721(\"Shiba\", \"SHIBA\") {}\n\n    function tokensOfOwner(address _owner) external view returns (uint[] memory) {\n        uint tokenCount = balanceOf(_owner);\n        if (tokenCount == 0) {\n            return new uint[](0); // Return an empty array\n        } else {\n            uint[] memory result = new uint[](tokenCount);\n            for (uint index = 0; index < tokenCount; index++) {\n                result[index] = tokenOfOwnerByIndex(_owner, index);\n            }\n            return result;\n        }\n    }\n\n    function calculatePrice() public view returns (uint) {\n        // require(hasSaleStarted, \"Sale hasn't started\");\n        return calculatePriceForToken(totalSupply());\n    }\n\n    function calculatePriceForToken(uint _id) public pure returns (uint) {\n        require(_id < MAX_SHIBA_SUPPLY, \"Sale has already ended\");\n\n        if (_id >= 900) {\n            return 1 ether; //    900-1000: 1.00 ETH\n        } else if (_id >= 800) {\n            return 0.64 ether; // 800-900:  0.64 ETH\n        } else if (_id >= 600) {\n            return 0.32 ether; // 600-800:  0.32 ETH\n        } else if (_id >= 400) {\n            return 0.16 ether; // 400-600:  0.16 ETH\n        } else if (_id >= 200) {\n            return 0.08 ether; // 200-400:  0.08 ETH\n        } else if (_id >= 100) {\n            return 0.04 ether; // 100-200:   0.04 ETH\n        } else {\n            return 0.02 ether; // 0 - 100     0.02 ETH\n        }\n    }\n\n    function adoptShibas(uint numShibas) public payable {\n        uint _totalSupply = totalSupply();\n        require(_totalSupply < MAX_SHIBA_SUPPLY, \"Sale has already ended\");\n        require(_totalSupply + numShibas <= MAX_SHIBA_SUPPLY, \"Exceeds maximum Shiba supply\");\n        require(numShibas > 0 && numShibas <= 20, \"You can adopt minimum 1, maximum 20 shibas\");\n        require(msg.value >= calculatePrice() * numShibas, \"Ether value sent is below the price\");\n\n        for (uint i = 0; i < numShibas; i++) {\n            uint mintIndex = totalSupply();\n            _safeMint(msg.sender, mintIndex);\n        }\n    }\n\n    function _baseURI() internal view override returns (string memory) {\n        return baseURI;\n    }\n\n    function setBaseURI(string memory __baseURI) public onlyOwner {\n        baseURI = __baseURI;\n    }\n\n    function startSale() public onlyOwner {\n        hasSaleStarted = true;\n    }\n\n    function pauseSale() public onlyOwner {\n        hasSaleStarted = false;\n    }\n\n    function withdrawAll() public payable onlyOwner {\n        require(payable(msg.sender).send(address(this).balance));\n    }\n\n    // #0 - #10: Reserved for giveaways and people who helped along the way\n    function reserveGiveaway(uint numShibas) public onlyOwner {\n        uint currentSupply = totalSupply();\n        require(currentSupply + numShibas <= 10, \"Exceeded giveaway limit\");\n        for (uint index = 0; index < numShibas; index++) {\n            _safeMint(owner(), currentSupply + index);\n        }\n    }\n}\n\n// @@@@@@@@@@@@@@@@@@@@@@@@@@@@@@@@@@@@@@@@\n// @@@@@@@@@@@@@@   @@@@@@@@@@@ @@@@@@@@@@@\n// @@@@@@@@@@@@@ @@@@         @ @@@@@@@@@@@\n// @@@@@@@@@@@@@ @@@@@@@@@@@@@@ @@@@@@@@@@@\n// @@@@@@@@@@@@@@ @@@@@@@@@@@@@ @@@@@@@@@@@\n// @@@@@@@@@@@@@ @@@@@@   @@@@ @ @@@@@@@@@@\n// @@@@@@@@@@@@@ @@@@@@@@@@@##@@ @@@@@@@@@@\n// @@@@@@@@@@@@@@@  @@@@@@@ @@@ @@@@@@@@@@@\n// @@@@@@@@@@@@@@@@@@ @@@@    @@@@@@@@@@@@@\n// @@@@@@@@@@@@@@@  @@@@@@@@@@@ @@@@@@@@@@@\n// @@@@@  @@@  @    @@@@@@@@@@@  @@@@@@@@@@\n// @@@@ @@ @@  @@@  @@@@@@@@@@@ @@@ @@@@@@@\n// @@@@ @@@    @@@@@ @@@@%@@@@ @@@@ @@@@@@@\n// @@@@@@@       @@@ @@@@ @@@@ @ @@@@@@@@@@\n// @@@@@@@@@@@@@@................@@@@@@@@@@\n// @@@@@@@@@@@@@@@@@@@@@@@@@@@@@@@@@@@@@@@@",
  "sourcePath": "/Users/wc/Program/blockchain/shiba_nft/contracts/Shibas.sol",
  "compiler": {
    "name": "solc",
    "version": "0.8.3+commit.8d00100c.Emscripten.clang"
  },
  "schemaVersion": "3.4.0",
  "updatedAt": "2021-04-29T10:14:12.901Z",
  "networkType": "ethereum",
  "devdoc": {
    "kind": "dev",
    "methods": {
      "approve(address,uint256)": {
        "details": "See {IERC721-approve}."
      },
      "balanceOf(address)": {
        "details": "See {IERC721-balanceOf}."
      },
      "getApproved(uint256)": {
        "details": "See {IERC721-getApproved}."
      },
      "isApprovedForAll(address,address)": {
        "details": "See {IERC721-isApprovedForAll}."
      },
      "name()": {
        "details": "See {IERC721Metadata-name}."
      },
      "owner()": {
        "details": "Returns the address of the current owner."
      },
      "ownerOf(uint256)": {
        "details": "See {IERC721-ownerOf}."
      },
      "renounceOwnership()": {
        "details": "Leaves the contract without owner. It will not be possible to call `onlyOwner` functions anymore. Can only be called by the current owner. NOTE: Renouncing ownership will leave the contract without an owner, thereby removing any functionality that is only available to the owner."
      },
      "safeTransferFrom(address,address,uint256)": {
        "details": "See {IERC721-safeTransferFrom}."
      },
      "safeTransferFrom(address,address,uint256,bytes)": {
        "details": "See {IERC721-safeTransferFrom}."
      },
      "setApprovalForAll(address,bool)": {
        "details": "See {IERC721-setApprovalForAll}."
      },
      "supportsInterface(bytes4)": {
        "details": "See {IERC165-supportsInterface}."
      },
      "symbol()": {
        "details": "See {IERC721Metadata-symbol}."
      },
      "tokenByIndex(uint256)": {
        "details": "See {IERC721Enumerable-tokenByIndex}."
      },
      "tokenOfOwnerByIndex(address,uint256)": {
        "details": "See {IERC721Enumerable-tokenOfOwnerByIndex}."
      },
      "tokenURI(uint256)": {
        "details": "See {IERC721Metadata-tokenURI}."
      },
      "totalSupply()": {
        "details": "See {IERC721Enumerable-totalSupply}."
      },
      "transferFrom(address,address,uint256)": {
        "details": "See {IERC721-transferFrom}."
      },
      "transferOwnership(address)": {
        "details": "Transfers ownership of the contract to a new account (`newOwner`). Can only be called by the current owner."
      }
    },
    "version": 1
  },
  "userdoc": {
    "kind": "user",
    "methods": {},
    "version": 1
  }
}