{
  "contractName": "Shibas",
  "abi": [
    {
      "inputs": [],
      "stateMutability": "nonpayable",
      "type": "constructor"
    },
    {
      "anonymous": false,
      "inputs": [
        {
          "indexed": true,
          "internalType": "address",
          "name": "owner",
          "type": "address"
        },
        {
          "indexed": true,
          "internalType": "address",
          "name": "approved",
          "type": "address"
        },
        {
          "indexed": true,
          "internalType": "uint256",
          "name": "tokenId",
          "type": "uint256"
        }
      ],
      "name": "Approval",
      "type": "event"
    },
    {
      "anonymous": false,
      "inputs": [
        {
          "indexed": true,
          "internalType": "address",
          "name": "owner",
          "type": "address"
        },
        {
          "indexed": true,
          "internalType": "address",
          "name": "operator",
          "type": "address"
        },
        {
          "indexed": false,
          "internalType": "bool",
          "name": "approved",
          "type": "bool"
        }
      ],
      "name": "ApprovalForAll",
      "type": "event"
    },
    {
      "anonymous": false,
      "inputs": [
        {
          "indexed": true,
          "internalType": "address",
          "name": "previousOwner",
          "type": "address"
        },
        {
          "indexed": true,
          "internalType": "address",
          "name": "newOwner",
          "type": "address"
        }
      ],
      "name": "OwnershipTransferred",
      "type": "event"
    },
    {
      "anonymous": false,
      "inputs": [
        {
          "indexed": true,
          "internalType": "address",
          "name": "from",
          "type": "address"
        },
        {
          "indexed": true,
          "internalType": "address",
          "name": "to",
          "type": "address"
        },
        {
          "indexed": true,
          "internalType": "uint256",
          "name": "tokenId",
          "type": "uint256"
        }
      ],
      "name": "Transfer",
      "type": "event"
    },
    {
      "inputs": [],
      "name": "MAX_SHIBA_SUPPLY",
      "outputs": [
        {
          "internalType": "uint256",
          "name": "",
          "type": "uint256"
        }
      ],
      "stateMutability": "view",
      "type": "function"
    },
    {
      "inputs": [],
      "name": "METADATA_PROVENANCE_HASH",
      "outputs": [
        {
          "internalType": "string",
          "name": "",
          "type": "string"
        }
      ],
      "stateMutability": "view",
      "type": "function"
    },
    {
      "inputs": [
        {
          "internalType": "address",
          "name": "to",
          "type": "address"
        },
        {
          "internalType": "uint256",
          "name": "tokenId",
          "type": "uint256"
        }
      ],
      "name": "approve",
      "outputs": [],
      "stateMutability": "nonpayable",
      "type": "function"
    },
    {
      "inputs": [
        {
          "internalType": "address",
          "name": "owner",
          "type": "address"
        }
      ],
      "name": "balanceOf",
      "outputs": [
        {
          "internalType": "uint256",
          "name": "",
          "type": "uint256"
        }
      ],
      "stateMutability": "view",
      "type": "function"
    },
    {
      "inputs": [
        {
          "internalType": "uint256",
          "name": "tokenId",
          "type": "uint256"
        }
      ],
      "name": "getApproved",
      "outputs": [
        {
          "internalType": "address",
          "name": "",
          "type": "address"
        }
      ],
      "stateMutability": "view",
      "type": "function"
    },
    {
      "inputs": [],
      "name": "hasSaleStarted",
      "outputs": [
        {
          "internalType": "bool",
          "name": "",
          "type": "bool"
        }
      ],
      "stateMutability": "view",
      "type": "function"
    },
    {
      "inputs": [
        {
          "internalType": "address",
          "name": "owner",
          "type": "address"
        },
        {
          "internalType": "address",
          "name": "operator",
          "type": "address"
        }
      ],
      "name": "isApprovedForAll",
      "outputs": [
        {
          "internalType": "bool",
          "name": "",
          "type": "bool"
        }
      ],
      "stateMutability": "view",
      "type": "function"
    },
    {
      "inputs": [],
      "name": "name",
      "outputs": [
        {
          "internalType": "string",
          "name": "",
          "type": "string"
        }
      ],
      "stateMutability": "view",
      "type": "function"
    },
    {
      "inputs": [],
      "name": "owner",
      "outputs": [
        {
          "internalType": "address",
          "name": "",
          "type": "address"
        }
      ],
      "stateMutability": "view",
      "type": "function"
    },
    {
      "inputs": [
        {
          "internalType": "uint256",
          "name": "tokenId",
          "type": "uint256"
        }
      ],
      "name": "ownerOf",
      "outputs": [
        {
          "internalType": "address",
          "name": "",
          "type": "address"
        }
      ],
      "stateMutability": "view",
      "type": "function"
    },
    {
      "inputs": [],
      "name": "renounceOwnership",
      "outputs": [],
      "stateMutability": "nonpayable",
      "type": "function"
    },
    {
      "inputs": [
        {
          "internalType": "address",
          "name": "from",
          "type": "address"
        },
        {
          "internalType": "address",
          "name": "to",
          "type": "address"
        },
        {
          "internalType": "uint256",
          "name": "tokenId",
          "type": "uint256"
        }
      ],
      "name": "safeTransferFrom",
      "outputs": [],
      "stateMutability": "nonpayable",
      "type": "function"
    },
    {
      "inputs": [
        {
          "internalType": "address",
          "name": "from",
          "type": "address"
        },
        {
          "internalType": "address",
          "name": "to",
          "type": "address"
        },
        {
          "internalType": "uint256",
          "name": "tokenId",
          "type": "uint256"
        },
        {
          "internalType": "bytes",
          "name": "_data",
          "type": "bytes"
        }
      ],
      "name": "safeTransferFrom",
      "outputs": [],
      "stateMutability": "nonpayable",
      "type": "function"
    },
    {
      "inputs": [
        {
          "internalType": "address",
          "name": "operator",
          "type": "address"
        },
        {
          "internalType": "bool",
          "name": "approved",
          "type": "bool"
        }
      ],
      "name": "setApprovalForAll",
      "outputs": [],
      "stateMutability": "nonpayable",
      "type": "function"
    },
    {
      "inputs": [
        {
          "internalType": "bytes4",
          "name": "interfaceId",
          "type": "bytes4"
        }
      ],
      "name": "supportsInterface",
      "outputs": [
        {
          "internalType": "bool",
          "name": "",
          "type": "bool"
        }
      ],
      "stateMutability": "view",
      "type": "function"
    },
    {
      "inputs": [],
      "name": "symbol",
      "outputs": [
        {
          "internalType": "string",
          "name": "",
          "type": "string"
        }
      ],
      "stateMutability": "view",
      "type": "function"
    },
    {
      "inputs": [
        {
          "internalType": "uint256",
          "name": "index",
          "type": "uint256"
        }
      ],
      "name": "tokenByIndex",
      "outputs": [
        {
          "internalType": "uint256",
          "name": "",
          "type": "uint256"
        }
      ],
      "stateMutability": "view",
      "type": "function"
    },
    {
      "inputs": [
        {
          "internalType": "address",
          "name": "owner",
          "type": "address"
        },
        {
          "internalType": "uint256",
          "name": "index",
          "type": "uint256"
        }
      ],
      "name": "tokenOfOwnerByIndex",
      "outputs": [
        {
          "internalType": "uint256",
          "name": "",
          "type": "uint256"
        }
      ],
      "stateMutability": "view",
      "type": "function"
    },
    {
      "inputs": [
        {
          "internalType": "uint256",
          "name": "tokenId",
          "type": "uint256"
        }
      ],
      "name": "tokenURI",
      "outputs": [
        {
          "internalType": "string",
          "name": "",
          "type": "string"
        }
      ],
      "stateMutability": "view",
      "type": "function"
    },
    {
      "inputs": [],
      "name": "totalSupply",
      "outputs": [
        {
          "internalType": "uint256",
          "name": "",
          "type": "uint256"
        }
      ],
      "stateMutability": "view",
      "type": "function"
    },
    {
      "inputs": [
        {
          "internalType": "address",
          "name": "from",
          "type": "address"
        },
        {
          "internalType": "address",
          "name": "to",
          "type": "address"
        },
        {
          "internalType": "uint256",
          "name": "tokenId",
          "type": "uint256"
        }
      ],
      "name": "transferFrom",
      "outputs": [],
      "stateMutability": "nonpayable",
      "type": "function"
    },
    {
      "inputs": [
        {
          "internalType": "address",
          "name": "newOwner",
          "type": "address"
        }
      ],
      "name": "transferOwnership",
      "outputs": [],
      "stateMutability": "nonpayable",
      "type": "function"
    },
    {
      "inputs": [
        {
          "internalType": "address",
          "name": "_owner",
          "type": "address"
        }
      ],
      "name": "tokensOfOwner",
      "outputs": [
        {
          "internalType": "uint256[]",
          "name": "",
          "type": "uint256[]"
        }
      ],
      "stateMutability": "view",
      "type": "function"
    },
    {
      "inputs": [],
      "name": "calculatePrice",
      "outputs": [
        {
          "internalType": "uint256",
          "name": "",
          "type": "uint256"
        }
      ],
      "stateMutability": "view",
      "type": "function"
    },
    {
      "inputs": [
        {
          "internalType": "uint256",
          "name": "_id",
          "type": "uint256"
        }
      ],
      "name": "calculatePriceForToken",
      "outputs": [
        {
          "internalType": "uint256",
          "name": "",
          "type": "uint256"
        }
      ],
      "stateMutability": "pure",
      "type": "function"
    },
    {
      "inputs": [
        {
          "internalType": "uint256",
          "name": "numShibas",
          "type": "uint256"
        }
      ],
      "name": "adoptShibas",
      "outputs": [],
      "stateMutability": "payable",
      "type": "function"
    },
    {
      "inputs": [
        {
          "internalType": "string",
          "name": "__baseURI",
          "type": "string"
        }
      ],
      "name": "setBaseURI",
      "outputs": [],
      "stateMutability": "nonpayable",
      "type": "function"
    },
    {
      "inputs": [],
      "name": "startSale",
      "outputs": [],
      "stateMutability": "nonpayable",
      "type": "function"
    },
    {
      "inputs": [],
      "name": "pauseSale",
      "outputs": [],
      "stateMutability": "nonpayable",
      "type": "function"
    },
    {
      "inputs": [],
      "name": "withdrawAll",
      "outputs": [],
      "stateMutability": "payable",
      "type": "function"
    },
    {
      "inputs": [
        {
          "internalType": "uint256",
          "name": "numShibas",
          "type": "uint256"
        }
      ],
      "name": "reserveGiveaway",
      "outputs": [],
      "stateMutability": "nonpayable",
      "type": "function"
    }
  ],
  "bytecode": "0x60806040526000600960146101000a81548160ff0219169083151502179055503480156200002c57600080fd5b506040518060400160405280600581526020017f53686962610000000000000000000000000000000000000000000000000000008152506040518060400160405280600581526020017f53484942410000000000000000000000000000000000000000000000000000008152508160009080519060200190620000b19291906200018c565b508060019080519060200190620000ca9291906200018c565b5050506000620000df6200018460201b60201c565b905080600960006101000a81548173ffffffffffffffffffffffffffffffffffffffff021916908373ffffffffffffffffffffffffffffffffffffffff1602179055508073ffffffffffffffffffffffffffffffffffffffff16600073ffffffffffffffffffffffffffffffffffffffff167f8be0079c531659141344cd1fd0a4f28419497f9722a3daafe3b4186f6b6457e060405160405180910390a350620002a1565b600033905090565b8280546200019a906200023c565b90600052602060002090601f016020900481019282620001be57600085556200020a565b82601f10620001d957805160ff19168380011785556200020a565b828001600101855582156200020a579182015b8281111562000209578251825591602001919060010190620001ec565b5b5090506200021991906200021d565b5090565b5b80821115620002385760008160009055506001016200021e565b5090565b600060028204905060018216806200025557607f821691505b602082108114156200026c576200026b62000272565b5b50919050565b7f4e487b7100000000000000000000000000000000000000000000000000000000600052602260045260246000fd5b6143a280620002b16000396000f3fe6080604052600436106101d85760003560e01c806370a0823111610102578063b66a0e5d11610095578063d348b40911610064578063d348b4091461068e578063e985e9c5146106b9578063f0c9dc60146106f6578063f2fde38b14610721576101d8565b8063b66a0e5d146105f5578063b6be9fa31461060c578063b88d4fde14610628578063c87b56dd14610651576101d8565b80638da5cb5b116100d15780638da5cb5b1461054d57806395d89b4114610578578063a22cb465146105a3578063a40f1aa5146105cc576101d8565b806370a08231146104b2578063715018a6146104ef5780638462151c14610506578063853828b614610543576101d8565b806323b872dd1161017a57806355367ba91161014957806355367ba9146103f857806355f804b31461040f5780636352211e146104385780636fd9537f14610475576101d8565b806323b872dd1461032c5780632f745c591461035557806342842e0e146103925780634f6ccce7146103bb576101d8565b8063095ea7b3116101b6578063095ea7b314610282578063133385f3146102ab57806318160ddd146102d65780631c8b232d14610301576101d8565b806301ffc9a7146101dd57806306fdde031461021a578063081812fc14610245575b600080fd5b3480156101e957600080fd5b5061020460048036038101906101ff9190612ec2565b61074a565b60405161021191906134c8565b60405180910390f35b34801561022657600080fd5b5061022f6107c4565b60405161023c91906134e3565b60405180910390f35b34801561025157600080fd5b5061026c60048036038101906102679190612f55565b610856565b604051610279919061343f565b60405180910390f35b34801561028e57600080fd5b506102a960048036038101906102a49190612e86565b6108db565b005b3480156102b757600080fd5b506102c06109f3565b6040516102cd9190613805565b60405180910390f35b3480156102e257600080fd5b506102eb6109f9565b6040516102f89190613805565b60405180910390f35b34801561030d57600080fd5b50610316610a03565b60405161032391906134c8565b60405180910390f35b34801561033857600080fd5b50610353600480360381019061034e9190612d80565b610a16565b005b34801561036157600080fd5b5061037c60048036038101906103779190612e86565b610a76565b6040516103899190613805565b60405180910390f35b34801561039e57600080fd5b506103b960048036038101906103b49190612d80565b610b1b565b005b3480156103c757600080fd5b506103e260048036038101906103dd9190612f55565b610b3b565b6040516103ef9190613805565b60405180910390f35b34801561040457600080fd5b5061040d610b8e565b005b34801561041b57600080fd5b5061043660048036038101906104319190612f14565b610c27565b005b34801561044457600080fd5b5061045f600480360381019061045a9190612f55565b610cbd565b60405161046c919061343f565b60405180910390f35b34801561048157600080fd5b5061049c60048036038101906104979190612f55565b610d6f565b6040516104a99190613805565b60405180910390f35b3480156104be57600080fd5b506104d960048036038101906104d49190612d1b565b610e58565b6040516104e69190613805565b60405180910390f35b3480156104fb57600080fd5b50610504610f10565b005b34801561051257600080fd5b5061052d60048036038101906105289190612d1b565b61104d565b60405161053a91906134a6565b60405180910390f35b61054b6111c9565b005b34801561055957600080fd5b50610562611285565b60405161056f919061343f565b60405180910390f35b34801561058457600080fd5b5061058d6112af565b60405161059a91906134e3565b60405180910390f35b3480156105af57600080fd5b506105ca60048036038101906105c59190612e4a565b611341565b005b3480156105d857600080fd5b506105f360048036038101906105ee9190612f55565b6114c2565b005b34801561060157600080fd5b5061060a6115d8565b005b61062660048036038101906106219190612f55565b611671565b005b34801561063457600080fd5b5061064f600480360381019061064a9190612dcf565b6117f0565b005b34801561065d57600080fd5b5061067860048036038101906106739190612f55565b611852565b60405161068591906134e3565b60405180910390f35b34801561069a57600080fd5b506106a36118f9565b6040516106b09190613805565b60405180910390f35b3480156106c557600080fd5b506106e060048036038101906106db9190612d44565b61195f565b6040516106ed91906134c8565b60405180910390f35b34801561070257600080fd5b5061070b6119f3565b60405161071891906134e3565b60405180910390f35b34801561072d57600080fd5b5061074860048036038101906107439190612d1b565b611a0f565b005b60007f780e9d63000000000000000000000000000000000000000000000000000000007bffffffffffffffffffffffffffffffffffffffffffffffffffffffff1916827bffffffffffffffffffffffffffffffffffffffffffffffffffffffff191614806107bd57506107bc82611bbb565b5b9050919050565b6060600080546107d390613aee565b80601f01602080910402602001604051908101604052809291908181526020018280546107ff90613aee565b801561084c5780601f106108215761010080835404028352916020019161084c565b820191906000526020600020905b81548152906001019060200180831161082f57829003601f168201915b5050505050905090565b600061086182611c9d565b6108a0576040517f08c379a0000000000000000000000000000000000000000000000000000000008152600401610897906136a5565b60405180910390fd5b6004600083815260200190815260200160002060009054906101000a900473ffffffffffffffffffffffffffffffffffffffff169050919050565b60006108e682610cbd565b90508073ffffffffffffffffffffffffffffffffffffffff168373ffffffffffffffffffffffffffffffffffffffff161415610957576040517f08c379a000000000000000000000000000000000000000000000000000000000815260040161094e90613745565b60405180910390fd5b8073ffffffffffffffffffffffffffffffffffffffff16610976611d09565b73ffffffffffffffffffffffffffffffffffffffff1614806109a557506109a48161099f611d09565b61195f565b5b6109e4576040517f08c379a00000000000000000000000000000000000000000000000000000000081526004016109db90613605565b60405180910390fd5b6109ee8383611d11565b505050565b6103e881565b6000600854905090565b600960149054906101000a900460ff1681565b610a27610a21611d09565b82611dca565b610a66576040517f08c379a0000000000000000000000000000000000000000000000000000000008152600401610a5d90613785565b60405180910390fd5b610a71838383611ea8565b505050565b6000610a8183610e58565b8210610ac2576040517f08c379a0000000000000000000000000000000000000000000000000000000008152600401610ab990613505565b60405180910390fd5b600660008473ffffffffffffffffffffffffffffffffffffffff1673ffffffffffffffffffffffffffffffffffffffff168152602001908152602001600020600083815260200190815260200160002054905092915050565b610b36838383604051806020016040528060008152506117f0565b505050565b6000610b456109f9565b8210610b86576040517f08c379a0000000000000000000000000000000000000000000000000000000008152600401610b7d906137a5565b60405180910390fd5b819050919050565b610b96611d09565b73ffffffffffffffffffffffffffffffffffffffff16610bb4611285565b73ffffffffffffffffffffffffffffffffffffffff1614610c0a576040517f08c379a0000000000000000000000000000000000000000000000000000000008152600401610c01906136e5565b60405180910390fd5b6000600960146101000a81548160ff021916908315150217905550565b610c2f611d09565b73ffffffffffffffffffffffffffffffffffffffff16610c4d611285565b73ffffffffffffffffffffffffffffffffffffffff1614610ca3576040517f08c379a0000000000000000000000000000000000000000000000000000000008152600401610c9a906136e5565b60405180910390fd5b80600a9080519060200190610cb9929190612b3f565b5050565b6000806002600084815260200190815260200160002060009054906101000a900473ffffffffffffffffffffffffffffffffffffffff169050600073ffffffffffffffffffffffffffffffffffffffff168173ffffffffffffffffffffffffffffffffffffffff161415610d66576040517f08c379a0000000000000000000000000000000000000000000000000000000008152600401610d5d90613645565b60405180910390fd5b80915050919050565b60006103e88210610db5576040517f08c379a0000000000000000000000000000000000000000000000000000000008152600401610dac90613765565b60405180910390fd5b6103848210610dce57670de0b6b3a76400009050610e53565b6103208210610de7576708e1bc9bf04000009050610e53565b6102588210610e0057670470de4df82000009050610e53565b6101908210610e19576702386f26fc1000009050610e53565b60c88210610e315767011c37937e0800009050610e53565b60648210610e4857668e1bc9bf0400009050610e53565b66470de4df82000090505b919050565b60008073ffffffffffffffffffffffffffffffffffffffff168273ffffffffffffffffffffffffffffffffffffffff161415610ec9576040517f08c379a0000000000000000000000000000000000000000000000000000000008152600401610ec090613625565b60405180910390fd5b600360008373ffffffffffffffffffffffffffffffffffffffff1673ffffffffffffffffffffffffffffffffffffffff168152602001908152602001600020549050919050565b610f18611d09565b73ffffffffffffffffffffffffffffffffffffffff16610f36611285565b73ffffffffffffffffffffffffffffffffffffffff1614610f8c576040517f08c379a0000000000000000000000000000000000000000000000000000000008152600401610f83906136e5565b60405180910390fd5b600073ffffffffffffffffffffffffffffffffffffffff16600960009054906101000a900473ffffffffffffffffffffffffffffffffffffffff1673ffffffffffffffffffffffffffffffffffffffff167f8be0079c531659141344cd1fd0a4f28419497f9722a3daafe3b4186f6b6457e060405160405180910390a36000600960006101000a81548173ffffffffffffffffffffffffffffffffffffffff021916908373ffffffffffffffffffffffffffffffffffffffff160217905550565b6060600061105a83610e58565b905060008114156110dd57600067ffffffffffffffff8111156110a6577f4e487b7100000000000000000000000000000000000000000000000000000000600052604160045260246000fd5b6040519080825280602002602001820160405280156110d45781602001602082028036833780820191505090505b509150506111c4565b60008167ffffffffffffffff81111561111f577f4e487b7100000000000000000000000000000000000000000000000000000000600052604160045260246000fd5b60405190808252806020026020018201604052801561114d5781602001602082028036833780820191505090505b50905060005b828110156111bd576111658582610a76565b82828151811061119e577f4e487b7100000000000000000000000000000000000000000000000000000000600052603260045260246000fd5b60200260200101818152505080806111b590613b51565b915050611153565b5080925050505b919050565b6111d1611d09565b73ffffffffffffffffffffffffffffffffffffffff166111ef611285565b73ffffffffffffffffffffffffffffffffffffffff1614611245576040517f08c379a000000000000000000000000000000000000000000000000000000000815260040161123c906136e5565b60405180910390fd5b3373ffffffffffffffffffffffffffffffffffffffff166108fc479081150290604051600060405180830381858888f1935050505061128357600080fd5b565b6000600960009054906101000a900473ffffffffffffffffffffffffffffffffffffffff16905090565b6060600180546112be90613aee565b80601f01602080910402602001604051908101604052809291908181526020018280546112ea90613aee565b80156113375780601f1061130c57610100808354040283529160200191611337565b820191906000526020600020905b81548152906001019060200180831161131a57829003601f168201915b5050505050905090565b611349611d09565b73ffffffffffffffffffffffffffffffffffffffff168273ffffffffffffffffffffffffffffffffffffffff1614156113b7576040517f08c379a00000000000000000000000000000000000000000000000000000000081526004016113ae906135a5565b60405180910390fd5b80600560006113c4611d09565b73ffffffffffffffffffffffffffffffffffffffff1673ffffffffffffffffffffffffffffffffffffffff16815260200190815260200160002060008473ffffffffffffffffffffffffffffffffffffffff1673ffffffffffffffffffffffffffffffffffffffff16815260200190815260200160002060006101000a81548160ff0219169083151502179055508173ffffffffffffffffffffffffffffffffffffffff16611471611d09565b73ffffffffffffffffffffffffffffffffffffffff167f17307eab39ab6107e8899845ad3d59bd9653f200f220920489ca2b5937696c31836040516114b691906134c8565b60405180910390a35050565b6114ca611d09565b73ffffffffffffffffffffffffffffffffffffffff166114e8611285565b73ffffffffffffffffffffffffffffffffffffffff161461153e576040517f08c379a0000000000000000000000000000000000000000000000000000000008152600401611535906136e5565b60405180910390fd5b60006115486109f9565b9050601482826115589190613923565b1115611599576040517f08c379a0000000000000000000000000000000000000000000000000000000008152600401611590906137e5565b60405180910390fd5b60005b828110156115d3576115c06115af611285565b82846115bb9190613923565b612104565b80806115cb90613b51565b91505061159c565b505050565b6115e0611d09565b73ffffffffffffffffffffffffffffffffffffffff166115fe611285565b73ffffffffffffffffffffffffffffffffffffffff1614611654576040517f08c379a000000000000000000000000000000000000000000000000000000000815260040161164b906136e5565b60405180910390fd5b6001600960146101000a81548160ff021916908315150217905550565b600061167b6109f9565b90506103e881106116c1576040517f08c379a00000000000000000000000000000000000000000000000000000000081526004016116b890613765565b60405180910390fd5b6103e882826116d09190613923565b1115611711576040517f08c379a0000000000000000000000000000000000000000000000000000000008152600401611708906135e5565b60405180910390fd5b600082118015611722575060148211155b611761576040517f08c379a0000000000000000000000000000000000000000000000000000000008152600401611758906136c5565b60405180910390fd5b8161176a6118f9565b61177491906139aa565b3410156117b6576040517f08c379a00000000000000000000000000000000000000000000000000000000081526004016117ad90613665565b60405180910390fd5b60005b828110156117eb5760006117cb6109f9565b90506117d73382612104565b5080806117e390613b51565b9150506117b9565b505050565b6118016117fb611d09565b83611dca565b611840576040517f08c379a000000000000000000000000000000000000000000000000000000000815260040161183790613785565b60405180910390fd5b61184c84848484612122565b50505050565b606061185d82611c9d565b61189c576040517f08c379a000000000000000000000000000000000000000000000000000000000815260040161189390613725565b60405180910390fd5b60006118a661217e565b905060008151116118c657604051806020016040528060008152506118f1565b806118d084612210565b6040516020016118e192919061341b565b6040516020818303038152906040525b915050919050565b6000600960149054906101000a900460ff1661194a576040517f08c379a0000000000000000000000000000000000000000000000000000000008152600401611941906137c5565b60405180910390fd5b61195a6119556109f9565b610d6f565b905090565b6000600560008473ffffffffffffffffffffffffffffffffffffffff1673ffffffffffffffffffffffffffffffffffffffff16815260200190815260200160002060008373ffffffffffffffffffffffffffffffffffffffff1673ffffffffffffffffffffffffffffffffffffffff16815260200190815260200160002060009054906101000a900460ff16905092915050565b60405180606001604052806040815260200161432d6040913981565b611a17611d09565b73ffffffffffffffffffffffffffffffffffffffff16611a35611285565b73ffffffffffffffffffffffffffffffffffffffff1614611a8b576040517f08c379a0000000000000000000000000000000000000000000000000000000008152600401611a82906136e5565b60405180910390fd5b600073ffffffffffffffffffffffffffffffffffffffff168173ffffffffffffffffffffffffffffffffffffffff161415611afb576040517f08c379a0000000000000000000000000000000000000000000000000000000008152600401611af290613545565b60405180910390fd5b8073ffffffffffffffffffffffffffffffffffffffff16600960009054906101000a900473ffffffffffffffffffffffffffffffffffffffff1673ffffffffffffffffffffffffffffffffffffffff167f8be0079c531659141344cd1fd0a4f28419497f9722a3daafe3b4186f6b6457e060405160405180910390a380600960006101000a81548173ffffffffffffffffffffffffffffffffffffffff021916908373ffffffffffffffffffffffffffffffffffffffff16021790555050565b60007f80ac58cd000000000000000000000000000000000000000000000000000000007bffffffffffffffffffffffffffffffffffffffffffffffffffffffff1916827bffffffffffffffffffffffffffffffffffffffffffffffffffffffff19161480611c8657507f5b5e139f000000000000000000000000000000000000000000000000000000007bffffffffffffffffffffffffffffffffffffffffffffffffffffffff1916827bffffffffffffffffffffffffffffffffffffffffffffffffffffffff1916145b80611c965750611c95826123bd565b5b9050919050565b60008073ffffffffffffffffffffffffffffffffffffffff166002600084815260200190815260200160002060009054906101000a900473ffffffffffffffffffffffffffffffffffffffff1673ffffffffffffffffffffffffffffffffffffffff1614159050919050565b600033905090565b816004600083815260200190815260200160002060006101000a81548173ffffffffffffffffffffffffffffffffffffffff021916908373ffffffffffffffffffffffffffffffffffffffff160217905550808273ffffffffffffffffffffffffffffffffffffffff16611d8483610cbd565b73ffffffffffffffffffffffffffffffffffffffff167f8c5be1e5ebec7d5bd14f71427d1e84f3dd0314c0f7b2291e5b200ac8c7c3b92560405160405180910390a45050565b6000611dd582611c9d565b611e14576040517f08c379a0000000000000000000000000000000000000000000000000000000008152600401611e0b906135c5565b60405180910390fd5b6000611e1f83610cbd565b90508073ffffffffffffffffffffffffffffffffffffffff168473ffffffffffffffffffffffffffffffffffffffff161480611e8e57508373ffffffffffffffffffffffffffffffffffffffff16611e7684610856565b73ffffffffffffffffffffffffffffffffffffffff16145b80611e9f5750611e9e818561195f565b5b91505092915050565b8273ffffffffffffffffffffffffffffffffffffffff16611ec882610cbd565b73ffffffffffffffffffffffffffffffffffffffff1614611f1e576040517f08c379a0000000000000000000000000000000000000000000000000000000008152600401611f1590613705565b60405180910390fd5b600073ffffffffffffffffffffffffffffffffffffffff168273ffffffffffffffffffffffffffffffffffffffff161415611f8e576040517f08c379a0000000000000000000000000000000000000000000000000000000008152600401611f8590613585565b60405180910390fd5b611f99838383612427565b611fa4600082611d11565b6001600360008573ffffffffffffffffffffffffffffffffffffffff1673ffffffffffffffffffffffffffffffffffffffff1681526020019081526020016000206000828254611ff49190613a04565b925050819055506001600360008473ffffffffffffffffffffffffffffffffffffffff1673ffffffffffffffffffffffffffffffffffffffff168152602001908152602001600020600082825461204b9190613923565b92505081905550816002600083815260200190815260200160002060006101000a81548173ffffffffffffffffffffffffffffffffffffffff021916908373ffffffffffffffffffffffffffffffffffffffff160217905550808273ffffffffffffffffffffffffffffffffffffffff168473ffffffffffffffffffffffffffffffffffffffff167fddf252ad1be2c89b69c2b068fc378daa952ba7f163c4a11628f55a4df523b3ef60405160405180910390a4505050565b61211e82826040518060200160405280600081525061257b565b5050565b61212d848484611ea8565b612139848484846125d6565b612178576040517f08c379a000000000000000000000000000000000000000000000000000000000815260040161216f90613525565b60405180910390fd5b50505050565b6060600a805461218d90613aee565b80601f01602080910402602001604051908101604052809291908181526020018280546121b990613aee565b80156122065780601f106121db57610100808354040283529160200191612206565b820191906000526020600020905b8154815290600101906020018083116121e957829003601f168201915b5050505050905090565b60606000821415612258576040518060400160405280600181526020017f300000000000000000000000000000000000000000000000000000000000000081525090506123b8565b600082905060005b6000821461228a57808061227390613b51565b915050600a826122839190613979565b9150612260565b60008167ffffffffffffffff8111156122cc577f4e487b7100000000000000000000000000000000000000000000000000000000600052604160045260246000fd5b6040519080825280601f01601f1916602001820160405280156122fe5781602001600182028036833780820191505090505b5090505b600085146123b1576001826123179190613a04565b9150600a856123269190613b9a565b60306123329190613923565b60f81b81838151811061236e577f4e487b7100000000000000000000000000000000000000000000000000000000600052603260045260246000fd5b60200101907effffffffffffffffffffffffffffffffffffffffffffffffffffffffffffff1916908160001a905350600a856123aa9190613979565b9450612302565b8093505050505b919050565b60007f01ffc9a7000000000000000000000000000000000000000000000000000000007bffffffffffffffffffffffffffffffffffffffffffffffffffffffff1916827bffffffffffffffffffffffffffffffffffffffffffffffffffffffff1916149050919050565b61243283838361276d565b600073ffffffffffffffffffffffffffffffffffffffff168373ffffffffffffffffffffffffffffffffffffffff1614156124be57600854811461249f577f4e487b7100000000000000000000000000000000000000000000000000000000600052600160045260246000fd5b6001600860008282546124b29190613923565b925050819055506124fd565b8173ffffffffffffffffffffffffffffffffffffffff168373ffffffffffffffffffffffffffffffffffffffff16146124fc576124fb8382612772565b5b5b600073ffffffffffffffffffffffffffffffffffffffff168273ffffffffffffffffffffffffffffffffffffffff16141561253757612576565b8273ffffffffffffffffffffffffffffffffffffffff168273ffffffffffffffffffffffffffffffffffffffff16146125755761257482826128df565b5b5b505050565b612585838361295e565b61259260008484846125d6565b6125d1576040517f08c379a00000000000000000000000000000000000000000000000000000000081526004016125c890613525565b60405180910390fd5b505050565b60006125f78473ffffffffffffffffffffffffffffffffffffffff16612b2c565b15612760578373ffffffffffffffffffffffffffffffffffffffff1663150b7a02612620611d09565b8786866040518563ffffffff1660e01b8152600401612642949392919061345a565b602060405180830381600087803b15801561265c57600080fd5b505af192505050801561268d57506040513d601f19601f8201168201806040525081019061268a9190612eeb565b60015b612710573d80600081146126bd576040519150601f19603f3d011682016040523d82523d6000602084013e6126c2565b606091505b50600081511415612708576040517f08c379a00000000000000000000000000000000000000000000000000000000081526004016126ff90613525565b60405180910390fd5b805181602001fd5b63150b7a0260e01b7bffffffffffffffffffffffffffffffffffffffffffffffffffffffff1916817bffffffffffffffffffffffffffffffffffffffffffffffffffffffff191614915050612765565b600190505b949350505050565b505050565b6000600161277f84610e58565b6127899190613a04565b905060006007600084815260200190815260200160002054905081811461286e576000600660008673ffffffffffffffffffffffffffffffffffffffff1673ffffffffffffffffffffffffffffffffffffffff168152602001908152602001600020600084815260200190815260200160002054905080600660008773ffffffffffffffffffffffffffffffffffffffff1673ffffffffffffffffffffffffffffffffffffffff168152602001908152602001600020600084815260200190815260200160002081905550816007600083815260200190815260200160002081905550505b6007600084815260200190815260200160002060009055600660008573ffffffffffffffffffffffffffffffffffffffff1673ffffffffffffffffffffffffffffffffffffffff16815260200190815260200160002060008381526020019081526020016000206000905550505050565b60006128ea83610e58565b905081600660008573ffffffffffffffffffffffffffffffffffffffff1673ffffffffffffffffffffffffffffffffffffffff168152602001908152602001600020600083815260200190815260200160002081905550806007600084815260200190815260200160002081905550505050565b600073ffffffffffffffffffffffffffffffffffffffff168273ffffffffffffffffffffffffffffffffffffffff1614156129ce576040517f08c379a00000000000000000000000000000000000000000000000000000000081526004016129c590613685565b60405180910390fd5b6129d781611c9d565b15612a17576040517f08c379a0000000000000000000000000000000000000000000000000000000008152600401612a0e90613565565b60405180910390fd5b612a2360008383612427565b6001600360008473ffffffffffffffffffffffffffffffffffffffff1673ffffffffffffffffffffffffffffffffffffffff1681526020019081526020016000206000828254612a739190613923565b92505081905550816002600083815260200190815260200160002060006101000a81548173ffffffffffffffffffffffffffffffffffffffff021916908373ffffffffffffffffffffffffffffffffffffffff160217905550808273ffffffffffffffffffffffffffffffffffffffff16600073ffffffffffffffffffffffffffffffffffffffff167fddf252ad1be2c89b69c2b068fc378daa952ba7f163c4a11628f55a4df523b3ef60405160405180910390a45050565b600080823b905060008111915050919050565b828054612b4b90613aee565b90600052602060002090601f016020900481019282612b6d5760008555612bb4565b82601f10612b8657805160ff1916838001178555612bb4565b82800160010185558215612bb4579182015b82811115612bb3578251825591602001919060010190612b98565b5b509050612bc19190612bc5565b5090565b5b80821115612bde576000816000905550600101612bc6565b5090565b6000612bf5612bf084613845565b613820565b905082815260208101848484011115612c0d57600080fd5b612c18848285613aac565b509392505050565b6000612c33612c2e84613876565b613820565b905082815260208101848484011115612c4b57600080fd5b612c56848285613aac565b509392505050565b600081359050612c6d816142d0565b92915050565b600081359050612c82816142e7565b92915050565b600081359050612c97816142fe565b92915050565b600081519050612cac816142fe565b92915050565b600082601f830112612cc357600080fd5b8135612cd3848260208601612be2565b91505092915050565b600082601f830112612ced57600080fd5b8135612cfd848260208601612c20565b91505092915050565b600081359050612d1581614315565b92915050565b600060208284031215612d2d57600080fd5b6000612d3b84828501612c5e565b91505092915050565b60008060408385031215612d5757600080fd5b6000612d6585828601612c5e565b9250506020612d7685828601612c5e565b9150509250929050565b600080600060608486031215612d9557600080fd5b6000612da386828701612c5e565b9350506020612db486828701612c5e565b9250506040612dc586828701612d06565b9150509250925092565b60008060008060808587031215612de557600080fd5b6000612df387828801612c5e565b9450506020612e0487828801612c5e565b9350506040612e1587828801612d06565b925050606085013567ffffffffffffffff811115612e3257600080fd5b612e3e87828801612cb2565b91505092959194509250565b60008060408385031215612e5d57600080fd5b6000612e6b85828601612c5e565b9250506020612e7c85828601612c73565b9150509250929050565b60008060408385031215612e9957600080fd5b6000612ea785828601612c5e565b9250506020612eb885828601612d06565b9150509250929050565b600060208284031215612ed457600080fd5b6000612ee284828501612c88565b91505092915050565b600060208284031215612efd57600080fd5b6000612f0b84828501612c9d565b91505092915050565b600060208284031215612f2657600080fd5b600082013567ffffffffffffffff811115612f4057600080fd5b612f4c84828501612cdc565b91505092915050565b600060208284031215612f6757600080fd5b6000612f7584828501612d06565b91505092915050565b6000612f8a83836133fd565b60208301905092915050565b612f9f81613a38565b82525050565b6000612fb0826138b7565b612fba81856138e5565b9350612fc5836138a7565b8060005b83811015612ff6578151612fdd8882612f7e565b9750612fe8836138d8565b925050600181019050612fc9565b5085935050505092915050565b61300c81613a4a565b82525050565b600061301d826138c2565b61302781856138f6565b9350613037818560208601613abb565b61304081613c87565b840191505092915050565b6000613056826138cd565b6130608185613907565b9350613070818560208601613abb565b61307981613c87565b840191505092915050565b600061308f826138cd565b6130998185613918565b93506130a9818560208601613abb565b80840191505092915050565b60006130c2602b83613907565b91506130cd82613c98565b604082019050919050565b60006130e5603283613907565b91506130f082613ce7565b604082019050919050565b6000613108602683613907565b915061311382613d36565b604082019050919050565b600061312b601c83613907565b915061313682613d85565b602082019050919050565b600061314e602483613907565b915061315982613dae565b604082019050919050565b6000613171601983613907565b915061317c82613dfd565b602082019050919050565b6000613194602c83613907565b915061319f82613e26565b604082019050919050565b60006131b7601c83613907565b91506131c282613e75565b602082019050919050565b60006131da603883613907565b91506131e582613e9e565b604082019050919050565b60006131fd602a83613907565b915061320882613eed565b604082019050919050565b6000613220602983613907565b915061322b82613f3c565b604082019050919050565b6000613243602383613907565b915061324e82613f8b565b604082019050919050565b6000613266602083613907565b915061327182613fda565b602082019050919050565b6000613289602c83613907565b915061329482614003565b604082019050919050565b60006132ac602a83613907565b91506132b782614052565b604082019050919050565b60006132cf602083613907565b91506132da826140a1565b602082019050919050565b60006132f2602983613907565b91506132fd826140ca565b604082019050919050565b6000613315602f83613907565b915061332082614119565b604082019050919050565b6000613338602183613907565b915061334382614168565b604082019050919050565b600061335b601683613907565b9150613366826141b7565b602082019050919050565b600061337e603183613907565b9150613389826141e0565b604082019050919050565b60006133a1602c83613907565b91506133ac8261422f565b604082019050919050565b60006133c4601383613907565b91506133cf8261427e565b602082019050919050565b60006133e7601783613907565b91506133f2826142a7565b602082019050919050565b61340681613aa2565b82525050565b61341581613aa2565b82525050565b60006134278285613084565b91506134338284613084565b91508190509392505050565b60006020820190506134546000830184612f96565b92915050565b600060808201905061346f6000830187612f96565b61347c6020830186612f96565b613489604083018561340c565b818103606083015261349b8184613012565b905095945050505050565b600060208201905081810360008301526134c08184612fa5565b905092915050565b60006020820190506134dd6000830184613003565b92915050565b600060208201905081810360008301526134fd818461304b565b905092915050565b6000602082019050818103600083015261351e816130b5565b9050919050565b6000602082019050818103600083015261353e816130d8565b9050919050565b6000602082019050818103600083015261355e816130fb565b9050919050565b6000602082019050818103600083015261357e8161311e565b9050919050565b6000602082019050818103600083015261359e81613141565b9050919050565b600060208201905081810360008301526135be81613164565b9050919050565b600060208201905081810360008301526135de81613187565b9050919050565b600060208201905081810360008301526135fe816131aa565b9050919050565b6000602082019050818103600083015261361e816131cd565b9050919050565b6000602082019050818103600083015261363e816131f0565b9050919050565b6000602082019050818103600083015261365e81613213565b9050919050565b6000602082019050818103600083015261367e81613236565b9050919050565b6000602082019050818103600083015261369e81613259565b9050919050565b600060208201905081810360008301526136be8161327c565b9050919050565b600060208201905081810360008301526136de8161329f565b9050919050565b600060208201905081810360008301526136fe816132c2565b9050919050565b6000602082019050818103600083015261371e816132e5565b9050919050565b6000602082019050818103600083015261373e81613308565b9050919050565b6000602082019050818103600083015261375e8161332b565b9050919050565b6000602082019050818103600083015261377e8161334e565b9050919050565b6000602082019050818103600083015261379e81613371565b9050919050565b600060208201905081810360008301526137be81613394565b9050919050565b600060208201905081810360008301526137de816133b7565b9050919050565b600060208201905081810360008301526137fe816133da565b9050919050565b600060208201905061381a600083018461340c565b92915050565b600061382a61383b565b90506138368282613b20565b919050565b6000604051905090565b600067ffffffffffffffff8211156138605761385f613c58565b5b61386982613c87565b9050602081019050919050565b600067ffffffffffffffff82111561389157613890613c58565b5b61389a82613c87565b9050602081019050919050565b6000819050602082019050919050565b600081519050919050565b600081519050919050565b600081519050919050565b6000602082019050919050565b600082825260208201905092915050565b600082825260208201905092915050565b600082825260208201905092915050565b600081905092915050565b600061392e82613aa2565b915061393983613aa2565b9250827fffffffffffffffffffffffffffffffffffffffffffffffffffffffffffffffff0382111561396e5761396d613bcb565b5b828201905092915050565b600061398482613aa2565b915061398f83613aa2565b92508261399f5761399e613bfa565b5b828204905092915050565b60006139b582613aa2565b91506139c083613aa2565b9250817fffffffffffffffffffffffffffffffffffffffffffffffffffffffffffffffff04831182151516156139f9576139f8613bcb565b5b828202905092915050565b6000613a0f82613aa2565b9150613a1a83613aa2565b925082821015613a2d57613a2c613bcb565b5b828203905092915050565b6000613a4382613a82565b9050919050565b60008115159050919050565b60007fffffffff0000000000000000000000000000000000000000000000000000000082169050919050565b600073ffffffffffffffffffffffffffffffffffffffff82169050919050565b6000819050919050565b82818337600083830152505050565b60005b83811015613ad9578082015181840152602081019050613abe565b83811115613ae8576000848401525b50505050565b60006002820490506001821680613b0657607f821691505b60208210811415613b1a57613b19613c29565b5b50919050565b613b2982613c87565b810181811067ffffffffffffffff82111715613b4857613b47613c58565b5b80604052505050565b6000613b5c82613aa2565b91507fffffffffffffffffffffffffffffffffffffffffffffffffffffffffffffffff821415613b8f57613b8e613bcb565b5b600182019050919050565b6000613ba582613aa2565b9150613bb083613aa2565b925082613bc057613bbf613bfa565b5b828206905092915050565b7f4e487b7100000000000000000000000000000000000000000000000000000000600052601160045260246000fd5b7f4e487b7100000000000000000000000000000000000000000000000000000000600052601260045260246000fd5b7f4e487b7100000000000000000000000000000000000000000000000000000000600052602260045260246000fd5b7f4e487b7100000000000000000000000000000000000000000000000000000000600052604160045260246000fd5b6000601f19601f8301169050919050565b7f455243373231456e756d657261626c653a206f776e657220696e646578206f7560008201527f74206f6620626f756e6473000000000000000000000000000000000000000000602082015250565b7f4552433732313a207472616e7366657220746f206e6f6e20455243373231526560008201527f63656976657220696d706c656d656e7465720000000000000000000000000000602082015250565b7f4f776e61626c653a206e6577206f776e657220697320746865207a65726f206160008201527f6464726573730000000000000000000000000000000000000000000000000000602082015250565b7f4552433732313a20746f6b656e20616c7265616479206d696e74656400000000600082015250565b7f4552433732313a207472616e7366657220746f20746865207a65726f2061646460008201527f7265737300000000000000000000000000000000000000000000000000000000602082015250565b7f4552433732313a20617070726f766520746f2063616c6c657200000000000000600082015250565b7f4552433732313a206f70657261746f7220717565727920666f72206e6f6e657860008201527f697374656e7420746f6b656e0000000000000000000000000000000000000000602082015250565b7f45786365656473206d6178696d756d20536869626120737570706c7900000000600082015250565b7f4552433732313a20617070726f76652063616c6c6572206973206e6f74206f7760008201527f6e6572206e6f7220617070726f76656420666f7220616c6c0000000000000000602082015250565b7f4552433732313a2062616c616e636520717565727920666f7220746865207a6560008201527f726f206164647265737300000000000000000000000000000000000000000000602082015250565b7f4552433732313a206f776e657220717565727920666f72206e6f6e657869737460008201527f656e7420746f6b656e0000000000000000000000000000000000000000000000602082015250565b7f45746865722076616c75652073656e742069732062656c6f772074686520707260008201527f6963650000000000000000000000000000000000000000000000000000000000602082015250565b7f4552433732313a206d696e7420746f20746865207a65726f2061646472657373600082015250565b7f4552433732313a20617070726f76656420717565727920666f72206e6f6e657860008201527f697374656e7420746f6b656e0000000000000000000000000000000000000000602082015250565b7f596f752063616e2061646f7074206d696e696d756d20312c206d6178696d756d60008201527f2032302073686962617300000000000000000000000000000000000000000000602082015250565b7f4f776e61626c653a2063616c6c6572206973206e6f7420746865206f776e6572600082015250565b7f4552433732313a207472616e73666572206f6620746f6b656e2074686174206960008201527f73206e6f74206f776e0000000000000000000000000000000000000000000000602082015250565b7f4552433732314d657461646174613a2055524920717565727920666f72206e6f60008201527f6e6578697374656e7420746f6b656e0000000000000000000000000000000000602082015250565b7f4552433732313a20617070726f76616c20746f2063757272656e74206f776e6560008201527f7200000000000000000000000000000000000000000000000000000000000000602082015250565b7f53616c652068617320616c726561647920656e64656400000000000000000000600082015250565b7f4552433732313a207472616e736665722063616c6c6572206973206e6f74206f60008201527f776e6572206e6f7220617070726f766564000000000000000000000000000000602082015250565b7f455243373231456e756d657261626c653a20676c6f62616c20696e646578206f60008201527f7574206f6620626f756e64730000000000000000000000000000000000000000602082015250565b7f53616c65206861736e2774207374617274656400000000000000000000000000600082015250565b7f4578636565646564206769766561776179206c696d6974000000000000000000600082015250565b6142d981613a38565b81146142e457600080fd5b50565b6142f081613a4a565b81146142fb57600080fd5b50565b61430781613a56565b811461431257600080fd5b50565b61431e81613aa2565b811461432957600080fd5b5056fe38326334353139656138616439303131633563346366613832633732363731376661393835666338363739653562666563336162386538613965326238373339a2646970667358221220dc5075605c03c6e214da9208b6af13c83b60900d5df90dcbc9cbb9fd915ef4b564736f6c63430008030033",
  "immutableReferences": {},
  "source": "// SPDX-License-Identifier: MIT\npragma solidity ^0.8.0;\n\nimport \"./access/Ownable.sol\";\nimport \"./token/ERC721/ERC721.sol\";\nimport \"./ERC721EnumerableNew.sol\";\n\ncontract Shibas is ERC721EnumerableNew, Ownable {\n    // Maximum amount of Shibas in existance. Ever.\n    uint public constant MAX_SHIBA_SUPPLY = 1000;\n\n    // The provenance hash of all Shibas. (Root hash of all Shiba Properties hashes concatenated)\n    string public constant METADATA_PROVENANCE_HASH =\n        \"82c4519ea8ad9011c5c4cfa82c726717fa985fc8679e5bfec3ab8e8a9e2b8739\";\n\n    // Sale switch.\n    bool public hasSaleStarted = false;\n\n    // Base URI of Shiba's metadata\n    string private baseURI;\n\n    constructor() ERC721(\"Shiba\", \"SHIBA\") {}\n\n    function tokensOfOwner(address _owner) external view returns (uint[] memory) {\n        uint tokenCount = balanceOf(_owner);\n        if (tokenCount == 0) {\n            return new uint[](0); // Return an empty array\n        } else {\n            uint[] memory result = new uint[](tokenCount);\n            for (uint index = 0; index < tokenCount; index++) {\n                result[index] = tokenOfOwnerByIndex(_owner, index);\n            }\n            return result;\n        }\n    }\n\n    function calculatePrice() public view returns (uint) {\n        require(hasSaleStarted, \"Sale hasn't started\");\n        return calculatePriceForToken(totalSupply());\n    }\n\n    function calculatePriceForToken(uint _id) public pure returns (uint) {\n        require(_id < MAX_SHIBA_SUPPLY, \"Sale has already ended\");\n\n        if (_id >= 900) {\n            return 1 ether; //    900-1000: 1.00 ETH\n        } else if (_id >= 800) {\n            return 0.64 ether; // 800-900:  0.64 ETH\n        } else if (_id >= 600) {\n            return 0.32 ether; // 600-800:  0.32 ETH\n        } else if (_id >= 400) {\n            return 0.16 ether; // 400-600:  0.16 ETH\n        } else if (_id >= 200) {\n            return 0.08 ether; // 200-400:  0.08 ETH\n        } else if (_id >= 100) {\n            return 0.04 ether; // 100-200:   0.04 ETH\n        } else {\n            return 0.02 ether; // 0 - 100     0.02 ETH\n        }\n    }\n\n    function adoptShibas(uint numShibas) public payable {\n        uint _totalSupply = totalSupply();\n        require(_totalSupply < MAX_SHIBA_SUPPLY, \"Sale has already ended\");\n        require(_totalSupply + numShibas <= MAX_SHIBA_SUPPLY, \"Exceeds maximum Shiba supply\");\n        require(numShibas > 0 && numShibas <= 20, \"You can adopt minimum 1, maximum 20 shibas\");\n        require(msg.value >= calculatePrice() * numShibas, \"Ether value sent is below the price\");\n\n        for (uint i = 0; i < numShibas; i++) {\n            uint mintIndex = totalSupply();\n            _safeMint(msg.sender, mintIndex);\n        }\n    }\n\n    function _baseURI() internal view override returns (string memory) {\n        return baseURI;\n    }\n\n    function setBaseURI(string memory __baseURI) public onlyOwner {\n        baseURI = __baseURI;\n    }\n\n    function startSale() public onlyOwner {\n        hasSaleStarted = true;\n    }\n\n    function pauseSale() public onlyOwner {\n        hasSaleStarted = false;\n    }\n\n    function withdrawAll() public payable onlyOwner {\n        require(payable(msg.sender).send(address(this).balance));\n    }\n\n    // #0 - #10: Reserved for giveaways and people who helped along the way\n    function reserveGiveaway(uint numShibas) public onlyOwner {\n        uint currentSupply = totalSupply();\n        require(currentSupply + numShibas <= 20, \"Exceeded giveaway limit\");\n        for (uint index = 0; index < numShibas; index++) {\n            _safeMint(owner(), currentSupply + index);\n        }\n    }\n}\n\n// @@@@@@@@@@@@@@@@@@@@@@@@@@@@@@@@@@@@@@@@\n// @@@@@@@@@  @@@@@@@@@@@@@@@@  @@@@@@@@@@@\n// @@@@@@@@ @@ @ @@       @ @ @@ @@@@@@@@@@\n// @@@@@@ @@@@@@@@@@@@@@@@@@@@@@@ @@@@@@@@@\n// @@@@@ @@@@@@@@@@@@@@@@@@@@@@@@@ @@@@@@@@\n// @@@@ @@@@@@@  @@@@@@@@@  @@@@@@@ @@@@@@@\n// @@@@ @@@@@@@@@@@@@   @@@@@@@@@@@ @@@@@@@\n// @@@@@ @@@@@@@@@@@@@ @@@@@@@@@@@ @@@@@@@@\n// @@@@@@ @@@@@@@@@@@@@@@@@@@@@@@ @@@@@@@@@\n// @@@@@@@   @@@@@@@@@@@@@@@@@   @@@@@@@@@@\n// @@@@@@@@@@ @@@@@@@@@@@@@@@ @@@@@@@@@@@@@\n// @@@@@@@@@ @@@@@ @ @@ @ @@@@ @@@ @ @@@@@@\n// @@@@@@@@ @@@@@@ @ @@ @ @@@@@ @@ @@ @@@@@\n// @@@@@@ @@@@@@@@ @ @@ @ @@@@@@@ @@ @@@@@@\n// @@@@@     @@@@ @@@  @@@ @@@     @@@@@@@@\n// @@@@@@@@@@@@@@@@@@@@@@@@@@@@@@@@@@@@@@@@",
  "sourcePath": "/Users/wc/Program/blockchain/shiba-nft/contracts/Shibas.sol",
  "compiler": {
    "name": "solc",
    "version": "0.8.3+commit.8d00100c.Emscripten.clang"
  },
  "schemaVersion": "3.4.0",
  "updatedAt": "2021-05-14T12:31:26.301Z",
  "devdoc": {
    "kind": "dev",
    "methods": {
      "approve(address,uint256)": {
        "details": "See {IERC721-approve}."
      },
      "balanceOf(address)": {
        "details": "See {IERC721-balanceOf}."
      },
      "getApproved(uint256)": {
        "details": "See {IERC721-getApproved}."
      },
      "isApprovedForAll(address,address)": {
        "details": "See {IERC721-isApprovedForAll}."
      },
      "name()": {
        "details": "See {IERC721Metadata-name}."
      },
      "owner()": {
        "details": "Returns the address of the current owner."
      },
      "ownerOf(uint256)": {
        "details": "See {IERC721-ownerOf}."
      },
      "renounceOwnership()": {
        "details": "Leaves the contract without owner. It will not be possible to call `onlyOwner` functions anymore. Can only be called by the current owner. NOTE: Renouncing ownership will leave the contract without an owner, thereby removing any functionality that is only available to the owner."
      },
      "safeTransferFrom(address,address,uint256)": {
        "details": "See {IERC721-safeTransferFrom}."
      },
      "safeTransferFrom(address,address,uint256,bytes)": {
        "details": "See {IERC721-safeTransferFrom}."
      },
      "setApprovalForAll(address,bool)": {
        "details": "See {IERC721-setApprovalForAll}."
      },
      "supportsInterface(bytes4)": {
        "details": "See {IERC165-supportsInterface}."
      },
      "symbol()": {
        "details": "See {IERC721Metadata-symbol}."
      },
      "tokenByIndex(uint256)": {
        "details": "See {IERC721Enumerable-tokenByIndex}."
      },
      "tokenOfOwnerByIndex(address,uint256)": {
        "details": "See {IERC721Enumerable-tokenOfOwnerByIndex}."
      },
      "tokenURI(uint256)": {
        "details": "See {IERC721Metadata-tokenURI}."
      },
      "totalSupply()": {
        "details": "See {IERC721Enumerable-totalSupply}."
      },
      "transferFrom(address,address,uint256)": {
        "details": "See {IERC721-transferFrom}."
      },
      "transferOwnership(address)": {
        "details": "Transfers ownership of the contract to a new account (`newOwner`). Can only be called by the current owner."
      }
    },
    "version": 1
  },
  "userdoc": {
    "kind": "user",
    "methods": {},
    "version": 1
  }
}